:100000000C9409070C9431070C9431070C943107B8
:100010000C9431070C9431070C9431070C94310780
:100020000C9431070C9431070C94EF130C94611469
:100030000C9431070C9431070C9431070C94310760
:100040000C9431070C94D70A0C9431070C943107A7
:100050000C9431070C9431070C9431070C949909D6
:100060000C9431070C9431070C9431070C94310730
:100070000C9431070C9431070C9431070C94310720
:100080000C94100A0C9431070C9431070C9431072E
:100090000C9431070C9431070C9431070C94310700
:1000A0000C9431070C9431070C9431075C1C611CD3
:1000B000661C6D1C721C771C7E1C821CFE1C021DA3
:1000C000061D0A1D101D161D1C1D221D2E0831089F
:1000D0002008240828085208520852083508390810
:1000E0003D084308470852084D08C908CE08D30800
:1000F000DD08E708310931093109F108FB08050974
:100100000F091C0931092409F0F89C8E8783878E1A
:100110009CF8F00000FEFF0303030303070EFCF846
:100120000000FEFF0303030303070EFCF80000FFBB
:10013000FF00000000000000FFFF0000FEFF8383BF
:10014000838383C7EE7C380000F8FC0E07030303AB
:10015000070EFCF800003F7FE0C08080C0E07F3FDA
:10016000FFFF01010101010101FFFF0000FFFF0C82
:100170000C0C0C1C3E77E3C100007FFFC0C0C0C068
:10018000C0E0703F1F00001F3F70E0C0C0C0E070C3
:100190003F1F00007FFFC1C1C1C1C1E3773E1C000A
:1001A000001F3F70E0C0C0C0E0703F1F00000000B3
:1001B0000001FFFF010000000000000024002700F4
:1001C0002A002D003000D5F08D14A1C881CFD9F1BF
:1001D000AF20000408020110408040102040804001
:1001E000800802040180402010020110801020408D
:1001F000402000000000250028002B002E003100C8
:1002000004040404040304050202020204030202BB
:10021000020206060606060604040202020404148C
:10022000021302120215020702080204010C010661
:1002300001000000000000000000000000000000BD
:10024000000E0000000000000000000000000000A0
:10025000001E007C00000000000000000000000004
:10026000003E01FE00000000000000000000001F32
:1002700000FF03FC8000000000000000000001FF00
:10028000C3FE07F9C000000000000000000007FEE8
:10029000A7FA07E3C00000000000000000003FFFD5
:1002A000FFF407CFE00000000000000000007FFF27
:1002B000FFC4079FE0000000000000000001FFFFF6
:1002C000FF50073FE140000000000000000FFFFF6B
:1002D000F2B0067FE070000000000010007FFFFF1A
:1002E000F4E0025EC01800080000003C00FFFFFFC1
:1002F000FF80000380000036C000002601FFFFFFE2
:10030000F00000C7000200FD400000271FFFFFFFB4
:10031000F000007C0006030160000037FFFFFFFFD4
:10032000F000000000030400100003FFFFFFFFFFC8
:10033000F000000000011C00180007FFBFFFFD7F58
:10034000F00000000001280008000CFFEFFFFEBFD6
:10035000F00000000000A00000001DFFBFFFFE5FD6
:10036000E00000000000800000007E7FCFFFFFFB68
:10037000E0000000000000000200FE7F67FFF0FDCB
:10038000E00000000000000000001E7F8FFF8007DB
:10039000E00000000000000001003FF81FFE000721
:1003A000E0000000000000000000FFE3FFF800078D
:1003B000C00000000000000000007FDFF3E0000D3F
:1003C000C00000000000000000000017F780000DD2
:1003D000000000000000000000000017FC0000000A
:1003E000000000000000000000000000000000000D
:1003F00000000000000000000000000000000000FD
:1004000000000000000000000000000000000000EC
:10041000000007FFE01FF0000000000000000000E7
:10042000003C1FEBF07FFC3FC0F9F83E07FF01FFE7
:10043000F83C3FEBF0FFFE3FC0FDFC7E7FFFC3FFBB
:10044000FE3C3FBEF9FFFFBFC0FDFF7E7FFFF3FF15
:10045000FE3C3FA2F9FFFF9FC0FDFFFF7FFFF3FFC0
:10046000FE3C3FE3F9F8C7DFF1FCFFFF7FFFF3FF3E
:10047000FE3C3FE3F9F8C7CFFFFEFFFF7FFFF3FF2E
:10048000FE3C3FFFF9FFFFCFFFFEFFFF7FFFF3FFC3
:10049000FE3C3FFFF9CC1CE7FFFEFFFF3FF803FFE8
:1004A000C03C3FFFF3C804E7FFFEFFFF3FF003FF40
:1004B000C03C3FEBF9F807E7FFFEFFFF3FF003FF0B
:1004C000FE3C3FAAFCF807E7FFFEFFFFBFF003FF7B
:1004D000FE3C3FBEFEF807E7FFFEFFFFBFFC03FF49
:1004E000FE3C3FE3FEFC07E7FFFEFDFFBFFFFBFF17
:1004F000C03C3FE3FE7E1FE7FFFEFC7FBFFFFBFF2C
:10050000C0003FE3FE7FFFCFFFFCFC7FBFFFF3FF98
:10051000FE3C3FFFFE7FFFC7FFF9FE3F9FFFC3FF8B
:10052000FE3C3FFFF03FFFC3FFF07C0F01FC00FFEC
:10053000FE3C000000000000000000000000000081
:1005400000000000000000000000000000000000AB
:10055000000000000000000000000000000000009B
:10056000000000000000000000000000000000008B
:10057000000000000000000000000000000000007B
:10058000000000000000000000000000000000006B
:10059000000000000000000000000000000000005B
:1005A000000000000000000000000000000000004B
:1005B000000000000000000000000000000000003B
:1005C000000000000000000000000000000000002B
:1005D000000000000000000000000000000000001B
:1005E000000000000000000000000000000000000B
:1005F00000000000000000000000000000000000FB
:1006000000000000000000000000000000000000EA
:1006100000000000000000000000000000000000DA
:1006200000000000000000000000000000000000CA
:100630000000A140EDC0EDC0EDC0FFC0FFC0FFC095
:10064000FFC0FFC01E0061809E403F006D806D8036
:10065000BF40BF40BF4092409E40000000000000ED
:10066000000000000000000000000000000000008A
:1006700000009E409240BF40BF40BF406D806D80F3
:100680003F009E4061801E00FFC0FFC0FFC0FFC052
:10069000FFC0EDC0EDC0EDC0A140000000000000B3
:1006A000000000000000000000000000000000004A
:1006B0000000A140E1C0EDC0FFC0FFC0FFC0FFC00F
:1006C000FFC0BF401E006D8040803F007F805E8085
:1006D0005E80BF40B3409E408040000000000000AC
:1006E000000000000000000000000000000000000A
:1006F000000080409E40B340BF405E805E807F80AF
:100700003F0040806D801E00BF40FFC0FFC0FFC0A3
:10071000FFC0FFC0EDC0E1C0A1400000000000002C
:1007200000000000000000000000000000000000C9
:100730000000A140E1C0EDC0EDC0FFC0FFC0FFC0A0
:10074000FFC0FFC0BF4040805E80FFC0EDC0FFC063
:10075000F3C0A140CCC0E1C0A140000000000000F7
:100760000000000000000000000000000000000089
:100770000000A140E1C0CCC0A140F3C0FFC0EDC06B
:10078000FFC05E804080BF40FFC0FFC0FFC0FFC011
:10079000FFC0EDC0EDC0E1C0A140000000000000BE
:1007A0000000000000000000000000000000000049
:1007B000000000000000003E5B4F5B3E3E6B4F6B55
:1007C0003E1C3E7C3E1C183C7E3C181C577D571C32
:1007D0001C5E7F5E1C00183C1800FFE7C3E7FF00AB
:1007E00018241800FFE7DBE7FF30483A060E2629F9
:1007F000792926407F050507407F05253F5A3CE7BC
:100800003C5A7F3E1C1C08081C1C3E7F14227F2281
:10081000145F5F005F5F06097F017F006689956A4C
:10082000606060606094A2FFA29408047E040810D7
:10083000207E201008082A1C08081C2A08081E1000
:100840001010100C1E0C1E0C30383E3830060E3EB8
:100850000E06000000000000005F00000007000717
:1008600000147F147F14242A7F2A12231308646241
:1008700036495620500008070300001C22410000A2
:1008800041221C002A1C7F1C2A08083E0808008000
:100890007030000808080808000060600020100898
:1008A00004023E5149453E00427F40007249494999
:1008B000462141494D331814127F102745454539CB
:1008C0003C4A4949314121110907364949493646CF
:1008D0004949291E000014000000403400000008AF
:1008E0001422411414141414004122140802015952
:1008F00009063E415D594E7C1211127C7F494949DF
:10090000363E414141227F4141413E7F4949494173
:100910007F090909013E414151737F0808087F00A2
:10092000417F41002040413F017F081422417F4028
:100930004040407F021C027F7F0408107F3E4141FF
:10094000413E7F090909063E4151215E7F0919296F
:1009500046264949493203017F01033F4040403F59
:100960001F2040201F3F4038403F6314081463039A
:10097000047804036159494D43007F414141020419
:10098000081020004141417F040201020440404020
:100990004040000307080020545478407F28444416
:1009A000383844444428384444287F385454541830
:1009B00000087E090218A4A49C787F08040478002B
:1009C000447D40002040403D007F1028440000410D
:1009D0007F40007C047804787C0804047838444420
:1009E0004438FC1824241818242418FC7C08040417
:1009F00008485454542404043F44243C4040207C80
:100A00001C2040201C3C4030403C44281028444CD2
:100A10009090907C4464544C44000836410000009F
:100A2000770000004136080002010204023C262340
:100A3000263C1EA1A161123A4040207A38545455F8
:100A400059215555794121545478412155547840C4
:100A500020545579400C1E5272123955555559394A
:100A60005454545939555454580000457C4100029F
:100A7000457D420001457C40F0292429F0F02825DD
:100A800028F07C545545002054547C547C0A097F3E
:100A90004932494949323248484832324A48483056
:100AA0003A4141217A3A42402078009DA0A07D3908
:100AB000444444393D4040403D3C24FF2424487E8A
:100AC0004943662B2FFC2F2BFF0929F620C0887E77
:100AD000090320545479410000447D413048484A7C
:100AE00032384040227A007A0A0A727D0D19317D2F
:100AF0002629292F28262929292630484D40203803
:100B00000808080808080808382F10C8ACBA2F10C1
:100B10002834FA00007B000008142A142222142A28
:100B200014089500220095AA005500AAAA55AA55B6
:100B3000AA000000FF00101010FF00141414FF00A2
:100B40001010FF00FF1010F010F0141414FC00142B
:100B500014F700FF0000FF00FF1414F404FC141449
:100B600017101F10101F101F1414141F0010101046
:100B7000F0000000001F101010101F10101010F0D7
:100B800010000000FF101010101010101010FF10B7
:100B9000000000FF140000FF00FF00001F101700FE
:100BA00000FC04F414141710171414F404F40000D7
:100BB000FF00F714141414141414F700F714141489
:100BC000171410101F101F141414F4141010F01028
:100BD000F000001F101F0000001F14000000FC1494
:100BE0000000F010F01010FF10FF141414FF141088
:100BF00010101F00000000F010FFFFFFFFFFF0F0DB
:100C0000F0F0F0FFFFFF0000000000FFFF0F0F0FEC
:100C10000F0F38444438447C2A2A3E147E020206D0
:100C200006027E027E0263554941633844443C0417
:100C3000407E201E2006027E020299A5E7A5991C8F
:100C40002A492A1C4C7201724C304A4D4D303048B2
:100C5000784830BC625A463D3E494949007E010110
:100C6000017E2A2A2A2A2A44445F444440514A44A5
:100C70004040444A51400000FF0103E080FF000073
:100C800008086B6B083612362436060F090F06006B
:100C90000018180000001010003040FF0101001F74
:100CA00001011E00191D1712003C3C3C3C000000D5
:100CB000000006011501260137014A015D0172019C
:100CC00088019F01B801D201EE010B022A024B02FA
:100CD0006E029302BA02E40210033F037003A403FE
:100CE000DC03170455049704DD0427057505C805C2
:100CF00020067D06E0064907B8072D08A9082D093A
:100D0000B9094D0AEA0A900B400CFA0CC00D910E7D
:100D10006F0F5A1053115B1272139A14D4152017C7
:100D20008018F519801B231DDE1EB420A622B524D1
:100D3000E4263429A72B402E0031EA330037453A08
:100D4000BC3D68414C456B49C84D68524F57805C6B
:100D5000006210111213151617181A1C1D1F2123DB
:100D60002527292C2E3134373A3E4145494E5257DA
:100D70005C62686E757B838B939CA5AFB9C4D0DC35
:100D8000E9F703010000000200090F00000304015D
:100D9000000C000000000000000000000000000047
:100DA000000000080B00020202010009040000011B
:100DB00002020000052400100105240101010424A1
:100DC00002060524060001070581031000400904FE
:100DD0000100020A000000070502024000000705AA
:100DE00083024000000403090412010002EF020123
:100DF000404123368000010102030141726475699C
:100E00006E6F204C4C430041726475626F79000034
:100E1000B71D11241FBECFEFDAE0DEBFCDBF11E05A
:100E2000A0E0B1E0ECE7FDE302C005900D92A83C24
:100E3000B107D9F726E0A8ECB1E001C01D92AD37AB
:100E4000B207E1F717E0C9E0D7E004C02197FE013F
:100E50000E94B11EC830D107C9F70E9491160C94A8
:100E6000BC1E0C940000CF92DF92EF92FF920F9382
:100E70001F93CF93DF936C017A018B01C0E0D0E028
:100E8000CE15DF0589F0D8016D918D01D601ED9168
:100E9000FC910190F081E02DC6010995892B11F498
:100EA0007E0102C02196ECCFC701DF91CF911F9147
:100EB0000F91FF90EF90DF90CF900895CF92DF9247
:100EC000EF92FF920F931F93CF93E82FF0E0EE572E
:100ED000F24FC491E62FF0E0603330F4EE5AF24F57
:100EE000E4910E2F10E006C0EE0FFF1FEE5AF34FF5
:100EF000059114916801E12CF12C60E074E284EF1B
:100F000090E0A70196010E944E1EBA01A90141502E
:100F10005109610971094115510581E068077105A1
:100F200080F060E970ED83E090E0A70196010E94F7
:100F30004E1EBA01A901415051096109710983E0AE
:100F400001C081E0C130C9F0C33031F5909191000A
:100F5000987F892B8093910050939900409398003B
:100F60001093F7010093F60181E08093F5018091E1
:100F700071008260809371000FC090918100987F12
:100F8000892B809381005093890040938800809141
:100F90006F00826080936F00CF911F910F91FF903F
:100FA000EF90DF90CF900895E82FF0E0EE57F24FEA
:100FB000E491E13019F0E33069F0089580916F0019
:100FC0008D7F80936F009091E501E091E301F091B6
:100FD000E40108C01092F5019091F401E091F20152
:100FE000F091F3018081282F30E0892F90E08095E7
:100FF00090958223932380830895089580E090E064
:1010000008950E94B71E362F90E0FC01EC57F24F76
:101010004491FC01ED52FE4F2491FC01E050FE4F43
:101020008491882309F451C04423E1F150E0FA018E
:101030003197EF30F105B0F5EA59FF4F0C94B11E2E
:10104000909180009F7707C0909180009F7D03C0A2
:1010500090918000977F9093800024C094B59F77F3
:1010600002C094B59F7D94BD1DC0909190009F7764
:1010700007C0909190009F7D03C090919000977F52
:10108000909390000FC09091C0009F7703C0909103
:10109000C0009F7D9093C00005C09091C200977FD3
:1010A0009093C200E82FF0E0EE0FFF1FEE50FE4FCE
:1010B000A591B4918FB7F894EC91311103C02095AC
:1010C0002E2301C02E2B2C938FBF0895CF93DF9337
:1010D00090E0FC01ED52FE4F2491FC01E050FE4FE8
:1010E0008491882361F190E0880F991FFC01E854F6
:1010F000FE4FC591D491FC01EE50FE4FA591B491E5
:10110000611109C09FB7F894888120958223888354
:10111000EC912E230BC0623061F49FB7F8943881B4
:10112000822F809583238883EC912E2B2C939FBF55
:1011300006C08FB7F894E8812E2B28838FBFDF91EC
:10114000CF9108951F93CF93DF93182FEB0161E0A8
:101150000E946608209711F460E004C0CF3FD105DB
:1011600039F461E0812FDF91CF911F910C94030836
:10117000E12FF0E0EC57F24FE4914E2F50E0FA01EE
:101180003197EF30F10508F06CC0EB58FF4F0C942D
:10119000B11E84B5806884BDC7BD68C084B5806257
:1011A00084BDC8BD63C0809180008068809380004A
:1011B000D0938900C093880059C0809180008062DC
:1011C00080938000D0938B00C0938A004FC08091A1
:1011D0008000886080938000D0938D00C0938C0045
:1011E00045C080919000806880939000D0939900D2
:1011F000C09398003BC080919000806280939000E3
:10120000D0939B00C0939A0031C080919000886079
:1012100080939000D0939D00C0939C0027C0809144
:10122000C00080688093C0008091C0008F7B809355
:10123000C000C093CF001AC08091C000806280932C
:10124000C000C093D00012C08091C200886080931B
:10125000C2008091C2008B7F8093C200C093D200F5
:1012600005C0C038D1050CF07CCF76CFDF91CF918F
:101270001F9108953FB7F8948091F9019091FA0178
:10128000A091FB01B091FC0126B5A89B05C02F3FA2
:1012900019F00196A11DB11D3FBFBA2FA92F982F9C
:1012A0008827820F911DA11DB11DBC01CD0142E017
:1012B000660F771F881F991F4A95D1F708958F925F
:1012C0009F92AF92BF92CF92DF92EF92FF926B010B
:1012D0007C010E943A094B015C01C114D104E10474
:1012E000F104F1F00E943A09DC01CB018819990957
:1012F000AA09BB09883E9340A105B10570F321E01E
:10130000C21AD108E108F10888EE880E83E0981E21
:10131000A11CB11CC114D104E104F10419F7DDCF03
:10132000FF90EF90DF90CF90BF90AF909F908F9005
:1013300008951F920F920FB60F9211242F933F938F
:101340008F939F93AF93BF938091C9019091CA01EE
:10135000A091CB01B091CC013091F80123E0230F93
:101360002D3720F40196A11DB11D05C026E8230FDD
:101370000296A11DB11D2093F8018093C90190939D
:10138000CA01A093CB01B093CC018091F901909157
:10139000FA01A091FB01B091FC010196A11DB11DC4
:1013A0008093F9019093FA01A093FB01B093FC01A3
:1013B000BF91AF919F918F913F912F910F900FBE51
:1013C0000F901F9018958FB12CB193B130E02095FC
:1013D000309520743327A90123E0559547952A9528
:1013E000E1F7292F30E0209530952071332735958E
:1013F000279535952795242B8095807F822B0895FE
:10140000FC0121912EBD9C5F21910DB407FEFDCF03
:101410002EBDE817F907C1F70DB407FEFDCF0895FB
:101420001F920F920FB60F9211242F933F934F9359
:101430005F936F937F938F939F93AF93BF93EF933C
:10144000FF938091F501882349F08091F401E091A8
:10145000F201F091F3019081892780838091C80186
:10146000882309F493C08091EE019091EF01A0913F
:10147000F001B091F101892B8A2B8B2B09F486C0E6
:101480008091EE019091EF01A091F001B091F101F6
:101490000197A109B1098093EE019093EF01A09308
:1014A000F001B093F101892B8A2B8B2B09F06EC0D0
:1014B000E091EC01F091ED01BF016F5F7F4F709300
:1014C000ED016093EC014491942F907F842F8F70F5
:1014D000903819F40E94D407EBCF903981F43296FA
:1014E000F093ED01E093EC01FB0164919091EB012D
:1014F0008917F0F667FDDCCF0E945E07D9CF903EDA
:1015000029F41092ED011092EC01D2CF903F19F422
:101510001092C8013BC097FDCBCF3296F093ED01FE
:10152000E093EC01FB01249130E0342BA091F60113
:10153000B091F7010E94A21E6C507E4F8F4F9F4FBB
:1015400028EE33E040E050E00E94801E2093EE0140
:101550003093EF014093F0015093F1018091EE013F
:101560009091EF01A091F001B091F101892B8A2BAC
:101570008B2B61F481E090E0A0E0B0E08093EE017D
:101580009093EF01A093F001B093F101FF91EF91DF
:10159000BF91AF919F918F917F916F915F914F918B
:1015A0003F912F910F900FBE0F901F9018951F9293
:1015B0000F920FB60F9211242F933F938F939F9307
:1015C000AF93BF93EF93FF938091EA01882309F4CF
:1015D0004DC08091E6019091E701A091E801B091A2
:1015E000E901892B8A2B8B2B51F18091E501E09148
:1015F000E301F091E4019081892780838091E601E5
:101600009091E701A091E801B091E901181619063F
:101610001A061B06A4F58091E6019091E701A091BE
:10162000E801B091E9010197A109B1098093E601B0
:101630009093E701A093E801B093E90120C01092D4
:10164000EA0180916F008D7F80936F009091E5019A
:10165000E091E301F091E4018081282F30E0892FAF
:1016600090E0809590958223932308C08091E501B6
:10167000E091E301F091E401908189278083FF915B
:10168000EF91BF91AF919F918F913F912F910F90CB
:101690000FBE0F901F901895CF93DF938091EB01B1
:1016A000823009F46FC0C62F282F30E0F901EE57C1
:1016B000F24FD491F901EF51FE4F60838F5F809319
:1016C000EB0161E08C2F0E946608D13019F0D33015
:1016D00039F158C0109280001092810080918100F1
:1016E0008860809381008091810081608093810077
:1016F0006C2F70E0FB01E050FE4FE491F0E0EE0F44
:10170000FF1FEE50FE4F859194919093E4018093DA
:10171000E301FB01ED52FE4F64916093E50132C09D
:1017200010929000109291008091910088608093B7
:101730009100809191008160809391006C2F70E006
:10174000FB01E050FE4FE491F0E0EE0FFF1FEE5082
:10175000FE4F859194919093F3018093F201FB01E8
:10176000ED52FE4F64916093F4018091EB01882368
:1017700021F06CE380E00E945E0780E0DF91CF9172
:101780000C94D407DF91CF910895E4E6F0E08081D6
:10179000877F8083E5E6F0E08081877F808381E03A
:1017A0008093E00108956038710518F540345105C3
:1017B00000F5A42FA695A695A695B0E047705527ED
:1017C000B695BA2FAA27B795A7956A0F7B1FFC017C
:1017D000E60FF71F81E090E001C0880F4A95EAF715
:1017E000222319F09489892B03C080959489892339
:1017F000848B08952F923F924F925F926F927F92C7
:101800008F929F92AF92BF92CF92DF92EF92FF9210
:101810000F931F93CF93DF93CDB7DEB72A970FB601
:10182000F894DEBF0FBECDBF6A3091F4FC01E85ED4
:10183000FB4F408132972081318158E0459F200D38
:10184000311D112431832083329711821082C1C04F
:101850006D3009F4BEC09A878987885E9B4F9C8350
:101860008B83DC012C90E985FA85EA5EFB4F608072
:101870007180E985FA85EC5EFB4FFA83E98300818C
:10188000118100381105D4F0AB81BC812C91422F1D
:1018900050E0E981FA8180819181F6E02F9F800DEF
:1018A000911D1124A981BA818D939C93E985FA85B4
:1018B000E75EFB4F208121115EC08BC0B0E46B1648
:1018C000710414F7C801E5E02E9E800D911D1124CE
:1018D00018161906CCF6422C512CC301F8E02F9EA5
:1018E000800D911D11241816190674F655E0659F98
:1018F000900111243F832E83E12CF12C85E0E81622
:10190000F10441F0EE81FF81EE0DFF1DEE54F84F22
:10191000349001C0312C630138E0932D91709D8388
:101920004801882D801B8215B0F456018A2D8C1930
:10193000821568F42D81A501B40189859A853887BF
:101940000E94D30BAFEFAA1ABA0A3885EFCFBFEFC8
:101950008B1A9B0AE6CF36943150C40CD51C31113A
:10196000DCCFEFEFEE1AFE0A040D151DF6E0EF16C0
:10197000F10421F689CF6AEF64039001659F300D71
:10198000112420583F4F281739071CF5A985BA851F
:10199000ED91FC9111970190F081E02D6AE0CD016D
:1019A0002A960FB6F894DEBF0FBECDBFDF91CF9160
:1019B0001F910F91FF90EF90DF90CF90BF90AF906D
:1019C0009F908F907F906F905F904F903F902F905F
:1019D00009942A960FB6F894DEBF0FBECDBFDF91F3
:1019E000CF911F910F91FF90EF90DF90CF90BF901C
:1019F000AF909F908F907F906F905F904F903F90AF
:101A00002F9008950F93CF93DF930E94BE1020E094
:101A100030E040E850E060E070E080E090E00E945C
:101A200085122FE330E040E850E06FE370E080E0A3
:101A300090E00E9485122FE330E040E450E060E047
:101A400070E080E490E00E94851243E260E270E082
:101A500080E490E00E94A3118CE190E09093160640
:101A600080931506C3E0D0E0D0931806C093170604
:101A70006091CF0170E080E090E04AE00E94621146
:101A800080E690E09093160680931506D093180692
:101A9000C09317066091D00170E080E090E04AE0CA
:101AA0000E94621180910301823039F1833019F074
:101AB0008130B1F511C090910B0160910C018091C2
:101AC000D10170E004E12AE0913019F442E757E0D7
:101AD00024C042E357E021C090910B0160910C01BA
:101AE0008091D10170E004E12AE0913019F442EFD5
:101AF00056E013C042EB56E010C090910B0160918C
:101B00000C018091D10170E004E12AE0913019F4D8
:101B100042E756E002C042E356E090E00E94CD105A
:101B200080910201823039F1833019F08130B1F5B2
:101B300011C09091090160910A018091050170E046
:101B400004E12AE0913019F442E757E024C042E36F
:101B500057E021C09091090160910A01809105012F
:101B600070E004E12AE0913019F442EF56E013C02E
:101B700042EB56E010C09091090160910A018091FA
:101B8000050170E004E12AE0913019F442E756E0E3
:101B900002C042E356E090E00E94CD106091070140
:101BA00070E08091080142E090E00E94A31185E17D
:101BB00092E0DF91CF910F910C94000A3F924F92E7
:101BC0005F926F927F928F929F92AF92BF92CF92CD
:101BD000DF92EF92FF920F931F93CF93DF932091A9
:101BE000CD013091CE0123703327232B29F490911E
:101BF00006019F5F9093060190910601953018F0C1
:101C000094E0909306018093D20180910801680FBF
:101C10006093080100E010E03324339428EE422E54
:101C200023E0522E612C712C80910101882309F44C
:101C300060C0F801EE0FFF1FE25EFE4FC081D18150
:101C40003092EA014E01A12CB12C60E072E18AE7EA
:101C500090E0A50194010E944E1E69017A0181E085
:101C6000C81AD108E108F108C114D10481E0E806DE
:101C7000F10488F068E478EE81E090E0A501940139
:101C80000E944E1E69017A0181E0C81AD108E1085C
:101C9000F10893E001C091E080918100887F892B59
:101CA000809381009E01220F331FA4E1B0E00E94C7
:101CB000A21EA30192010E94801ED0928900C092B0
:101CC00088002093E6013093E7014093E8015093A8
:101CD000E90180916F00826080936F00012B49F4CD
:101CE0006EE170E080E090E00E945F0901E010E0AA
:101CF0009BCF8091CD019091CE0101969093CE0122
:101D00008093CD01DF91CF911F910F91FF90EF90C4
:101D1000DF90CF90BF90AF909F908F907F906F900B
:101D20005F904F903F9008950F93CF93DF930E9461
:101D3000BE1000E420E842E352E060E070E080E0A2
:101D400090E00E94CD1084E090E09093160680937E
:101D50001506C7E3D0E0D0931806C093170683EBAF
:101D600091E00E94BC1080E290E090931606809370
:101D70001506D0931806C093170688EB91E00E94D1
:101D8000BC108EE490E09093160680931506D093D5
:101D90001806C093170680EC91E00E94BC10809159
:101DA00000012BE0813031F44CE165E370E082E02A
:101DB00090E00AC04DE265E370E0823019F48EE1F4
:101DC00090E002C08CE490E00E94401085E192E037
:101DD000DF91CF910F910C94000AFC0180910002D9
:101DE000811103C08FEF9FEF08959FB7F89482E0B1
:101DF0008093E9002091F20030E01216130614F4EB
:101E000021E030E02115310559F0289884E68093CF
:101E1000FF018091F10080838091F200882319F006
:101E20009FBFC90108958BE68093E800F9CF2FB7D3
:101E3000F89483E08093E9009091E800892F807204
:101E400095FF04C09091F20080E4891B2FBF089594
:101E5000CF93DF931F92CDB7DEB76983DC01ED919D
:101E6000FC910280F381E02D41E050E0BE016F5F04
:101E70007F4F09950F90DF91CF91089583E0809374
:101E8000E9008091F200882319F08AE38093E8004A
:101E900008950E94170F90E00895CF93DF931F924B
:101EA000CDB7DEB7FC018485958597FD05C02FEF82
:101EB0003FEF358724870BC0CE0101960E94ED0EBF
:101EC000019719F4898190E002C08FEF9FEF0F9086
:101ED000DF91CF9108950F931F93CF93DF931F92BC
:101EE000CDB7DEB78C01FC018485958597FF0EC0C8
:101EF000CE0101960E94ED0E019719F4298130E080
:101F000002C02FEF3FEFF80135872487F801848561
:101F100095850F90DF91CF911F910F910895FC014E
:101F20008485958597FD0BC09FB7F89482E08093D8
:101F3000E9008091F2009FBF90E0019608959FB75D
:101F4000F89482E08093E9008091F2009FBF90E0D6
:101F50000895009769F0FC0101900020E9F731979E
:101F6000AF01481B590BBC0181E092E00C94330790
:101F700080E090E008958F929F92AF92BF92CF92AF
:101F8000DF92EF92FF920F931F93CF93DF935C0149
:101F90006B017A0180911501882309F45BC080915F
:101FA0000002882309F456C08091FE0180FF05C01D
:101FB0008091E00082608093E000E70110E00AEF8A
:101FC00083E0882E9AE3992E2097D9F10E94170F6B
:101FD00081110AC0015009F43DC061E070E080E069
:101FE00090E00E945F09F0CF282F30E0C217D3079E
:101FF0000CF48C2F4FB7F8948092E9009091E80090
:1020000095FF1DC0282F30E0C21BD30BF601982F7F
:10201000915020F081918093F100FACFC20ED31E2F
:10202000112319F09092E80009C08091E80085FD25
:1020300006C09092E80011E0209709F010E04FBF31
:10204000C3CF1111C3CF5D9884E68093FD011E14A8
:102050001F0444F081E090E0F5019383828380E0E7
:1020600090E001C0C701DF91CF911F910F91FF90C8
:10207000EF90DF90CF90BF90AF909F908F9008959A
:102080006F927F928F929F92AF92BF92CF92DF9288
:10209000EF92FF920F931F93CF93DF937C01EB019D
:1020A000922E3C01640E711C8C0197FF02C000E06F
:1020B00010E06801530181E8681671041CF080E8A3
:1020C000A82EB12CCA14DB045CF421E0AE01B601E9
:1020D00081E092E00E94D30B8FEFC81AD80AEACFB2
:1020E0006E01C90CD11C460181E0881A91080A15BD
:1020F0001B0554F421E0A401B80181E092E00E94A4
:10210000D30B0F5F1F4FF3CFD7FF02C0C0E0D0E06B
:102110005E01860181E4C816D10414F000E410E0E9
:10212000A016B1065CF421E0A501B70181E092E0C0
:102130000E94D30B8FEFA81AB80AEBCF81E0681A80
:102140007108C017D1074CF421E0AE01B30181E062
:1021500092E00E94D30B2196F4CFDF91CF911F9193
:102160000F91FF90EF90DF90CF90BF90AF909F9036
:102170008F907F906F9008950C94A90F20E085E1D7
:1021800092E0B22FB111BFEFFC010024B193B193E3
:10219000B193B1930394D1F708952F923F924F9248
:1021A0005F926F927F928F929F92AF92BF92CF92E7
:1021B000DF92EF92FF920F931F93CF93DF9300D0A4
:1021C00000D0CDB7DEB7E22EF12C9C012E0D3F1DC5
:1021D00037FD61C0803891050CF05DC010E09B01B7
:1021E000200F311F37FD57C0603471050CF053C00C
:1021F0003A012B011C01C70107969C0193E035951C
:1022000027959A95E1F73A832983A12CB12CC12C0B
:10221000D12CC016D1060CF03EC01C821B82460198
:10222000840C951CEB81FC81EE15FF0564F5EB81B8
:10223000FC8183E0F595E7958A95E1F7EA0DFB1DB2
:10224000E60DF71DE491F0E08B819C818770992762
:1022500020E830E002C0359527958A95E2F7E22321
:10226000F323EF2B51F021E0A4016B817C81620DFF
:10227000731D81E092E00E94D30B8B819C810196BB
:102280009C838B83CFCFFFEFCF1ADF0A29813A815E
:10229000A20EB31EBECF0F900F900F900F90DF9144
:1022A000CF911F910F91FF90EF90DF90CF90BF9053
:1022B000AF909F908F907F906F905F904F903F90E6
:1022C0002F9008958F929F92AF92BF920F931F937A
:1022D000CF93DF93CDB7DEB7A1970FB6F894DEBFEB
:1022E0000FBECDBF19A2423008F44AE08E010F5D47
:1022F0001F4F842E912CA12CB12CA50194010E947A
:10230000801EE62FB901CA0101501109EA3014F408
:10231000E05D01C0E95CD801EC93232B242B252B35
:1023200061F7C8010E94A90FA1960FB6F894DEBF0D
:102330000FBECDBFDF91CF911F910F91BF90AF9096
:102340009F908F9008952F923F924F925F926F923D
:102350007F928F929F92AF92BF92CF92DF92EF9235
:10236000FF920F931F93CF93DF9300D000D0CDB790
:10237000DEB78C017B01242F30E03C832B8381E08E
:1023800090E05C01A21AB30AC90191958195910967
:102390001C01220C331CA901460F571F21E0B80174
:1023A00081E092E00E94D30BA7018B819C81481BA6
:1023B000590B21E0B80181E092E00E94D30B6B81C0
:1023C0007C81600F711F21E0A70181E092E00E94F3
:1023D000D30BB801EB81FC816E1B7F0B21E0A701C1
:1023E00081E092E00E94D30BC12CD12C21E030E09F
:1023F0003A8329832B813C81C216D3060CF06EC030
:10240000B7FC0AC08B819C8101979C838B8392E0EF
:10241000290E311CA20CB31CEFEFCE1ADE0A298163
:102420003A812E5F3F4F3A832983A20EB31E3601B5
:10243000600E711E21E08B809C808E0C9F1CA4017D
:10244000B30181E092E00E94D30B28014C185D0893
:1024500021E0A401B20181E092E00E94D30B21E0CF
:1024600047018B819C81881A990AA401B30181E0FC
:1024700092E00E94D30B21E0A401B20181E092E03E
:102480000E94D30B46018E0C9F1C21E0A4016B809F
:102490007C80600E711EB30181E092E00E94D30B3C
:1024A00021E0A4012801EB81FC814E1A5F0AB201F0
:1024B00081E092E00E94D30B47018C189D0821E037
:1024C000A401B30181E092E00E94D30B21E0A401BA
:1024D000B20181E092E00E94D30B8CCF0F900F905D
:1024E0000F900F90DF91CF911F910F91FF90EF9080
:1024F000DF90CF90BF90AF909F908F907F906F9024
:102500005F904F903F902F9008955F926F927F92CF
:102510008F929F92AF92BF92CF92DF92EF92FF92F3
:102520000F931F93CF93DF93EC018B017A01A901E5
:10253000461B570B57FF03C0519541955109C701E1
:102540008C1B9D0B97FF03C0919581959109552494
:1025500053948417950714F0512C0AC09E2D8F2D8B
:102560007901292F382F9C2F8D2FE801092F182F43
:10257000EC16FD0654F4902F812F8901292F382F56
:102580009C2F8D2FE701E92EF82E37016C1A7D0A5A
:102590005901A01AB10AB7FE03C0B194A194B108C1
:1025A000630177FE03C08FEFC81AD80AD594C79489
:1025B0000217130714F08FEF01C081E0882E880FF7
:1025C0009908EC16FD06B4F021E0552019F0AE0193
:1025D000B80102C0A801BE0181E092E00E94D30BC5
:1025E000CA18DB08D7FE04C0080D191DC60CD71C7D
:1025F0002196E7CFDF91CF911F910F91FF90EF9040
:10260000DF90CF90BF90AF909F908F907F906F9012
:102610005F90089580911F0681110DC082E0809324
:102620001B0684E080931C0610921E0610921D0665
:1026300081E080931F068BE196E0089540917B0630
:1026400050917C062091790630917A064217530703
:10265000B4F49091E8009570E1F39091E80092FD58
:1026600019C08093F10080917B0690917C060196C1
:102670008F739927892B19F48EEF8093E80080914E
:102680007B0690917C06019690937C0680937B0656
:1026900081E0089580E00895CF92DF92EF92FF925B
:1026A0000F931F93CF93DF931F92CDB7DEB7182FF1
:1026B000062FE42E862F880F8E5F99830E941E13AB
:1026C00083E00E941E13F12EC12E9981D92E8C2DEC
:1026D0008F19801798F4F601E7FE02C0849101C0BB
:1026E00080810E941E13182F80E00E941E138123F8
:1026F000FFEFCF1ADF0A8111EACF01C081E00F900E
:10270000DF91CF911F910F91FF90EF90DF90CF90CD
:102710000895DF92EF92FF920F931F93CF93DF9371
:10272000D82E8A017B01E40EF51EEB01CE15DF05E4
:1027300071F0D7FE03C0FE01849101C088810E9420
:102740001E1321968111F2CF8FEF9FEF01C0C801B8
:10275000DF91CF911F910F91FF90EF90DF9008953F
:10276000615030F02091F100FC0120830196F8CFF8
:10277000289884E68093FF0108950F931F93CF93C9
:10278000DF931F92CDB7DEB782E0898342E450E049
:1027900063EA7DE080E80E9489130E940A13DC014D
:1027A00012960D911C9113970115110569F0D8012E
:1027B000ED91FC910280F381E02DBE016F5F7F4FB0
:1027C000C801099597FF07C089810F90DF91CF91CC
:1027D0001F910F910895F80100851185E5CF1F9293
:1027E0000F920FB60F9211248F939F938091E10067
:1027F0009091E100937F9093E10083FF0FC01092CE
:10280000E90091E09093EB001092EC0092E390933A
:10281000ED001092000298E09093F00082FF20C03B
:1028200093E09093E9009091F200992319F09AE3D4
:102830009093E8009091FD01992339F09091FD016A
:1028400091509093FD01992389F19091FF01992373
:1028500039F09091FF0191509093FF01992341F13C
:1028600084FF10C08091E2008E7E81608093E20040
:102870008091E1008F7E8093E1008091FE018E7E49
:10288000806111C080FF16C08091E2008E7E806161
:102890008093E2008091E1008E7E8093E100809140
:1028A000FE018E7E81608093FE0104C05D9ACDCFD3
:1028B000289AD6CF9F918F910F900FBE0F901F90A7
:1028C00018951F920F920FB60F921124CF92DF929C
:1028D000EF92FF920F931F932F933F934F935F932A
:1028E0006F937F938F939F93AF93BF93EF93FF93D8
:1028F000CF93DF93CDB7DEB76C97DEBFCDBF10921D
:10290000E9008091E80083FFEDC168E0CE014596C3
:102910000E94B01382EF8093E8008D8987FF05C085
:102920009091E80090FFFCCF03C09EEF9093E800E9
:10293000982F907609F0C6C09E892F89188D911125
:102940000CC0803829F4809178068093F10002C091
:102950001092F1001092F10048C1422F50E0512B2B
:10296000913051F4811141C14130510509F03DC10F
:10297000809178068D7F0BC0933061F4811135C151
:102980004130510509F031C1809178068260809311
:1029900078062BC1953041F48091E80080FFFCCF90
:1029A00020682093E30021C1963009F05FC0EB8CD2
:1029B000FC8C1092E90010927C0610927B0612307B
:1029C00091F510927A06109279060E94BD1399E053
:1029D000BE016F5F7F4FDB01E92F1D92EA95E9F79A
:1029E00099831A8391E09E8390EA98879AEF99875A
:1029F00020917B0630917C06275F3F4F3C832B83E1
:102A00008D831092E90010927C0610927B06F09262
:102A10007A06E092790649E050E080E00E9489134E
:102A20000E94BD13E2C0F0927A06E09279060E94FD
:102A30000A13DC011296ED90FC901397E114F10457
:102A400009F4C0C0D701ED91FC910480F581E02D1F
:102A5000BE016B5E7F4FC7010995009719F00CF01E
:102A6000C4C0C7C0F701E084F184E8CF973009F40F
:102A7000C0C0983021F481E08093F100B6C0993055
:102A800009F0B3C0837009F0B4C0E1E4F1E081E083
:102A900021E036E39081992361F08093E90020934F
:102AA000EB0091919093EC003093ED008F5F8730B5
:102AB00089F78EE78093EA001092EA008F8980936D
:102AC000000293C08B8D9C8D1092E90010927C06C1
:102AD00010927B0690937A0680937906898D8111F6
:102AE00056C08E899D89913A59F4813209F081C08E
:102AF00047E050E06EE071E080E00E94891375C00D
:102B0000913209F076C0833289F4888D90E0982F55
:102B100088272F89822BA0E0B0E080931601909344
:102B20001701A0931801B09319015FC0803269F4B6
:102B30008091E80082FFFCCF67E08EE091E00E9488
:102B4000B0138BEF8093E80006C0823209F04DC0CD
:102B50008F898093150180917706882319F0EEEF15
:102B6000FAE002C0E0E0F8E080910E0190910F01E0
:102B7000A0911001B0911101803B9440A105B105D5
:102B800009F07BC08091150180FF93C076C00E9440
:102B90000A13DC0112960D911C9113970115110572
:102BA00041F1D801ED91FC910190F081E02DBE0141
:102BB0006B5E7F4FC8010995811117C0F801008530
:102BC0001185ECCF113009F44EC0133091F48F8988
:102BD000882309F445C0823081F440E867E087E04B
:102BE0009EE00E944C13882321F08EEF8093E80032
:102BF00079C081E28093EB0075C0813029F440E810
:102C00006BE08BEF9DE0EDCF833099F70E940A13C4
:102C1000DC011296ED90FC9013978E010F5F1F4F11
:102C20006801E114F10479F0D701ED91FC9106807F
:102C3000F781E02DB801C7010995080F111DF701B3
:102C4000E084F184EECFD8011C92F60101900020BF
:102C5000E9F73197BF016C197D0940E0C601C1CF8A
:102C600065EE7DE002C069EE7DE06115710509F257
:102C7000FB01449150E080E840CF0FB6F894A8954E
:102C800080916000886180936000109260000FBEA8
:102C9000A895EE3F2AE0F20739F08091FE0A909164
:102CA000FF0A91838083A1CF1092FF0A1092FE0A3F
:102CB0009CCFEE3F8AE0F80731F0808191819093BC
:102CC000FF0A8093FE0A87E797E7918380839BE062
:102CD00088E10FB6F894A895809360000FBE90939A
:102CE000600083CF6C960FB6F894DEBF0FBECDBFE9
:102CF000DF91CF91FF91EF91BF91AF919F918F9114
:102D00007F916F915F914F913F912F911F910F9103
:102D1000FF90EF90DF90CF900F900FBE0F901F901D
:102D20001895CF93DF93CDB7DEB728970FB6F894F9
:102D3000DEBF0FBECDBF789484B5826084BD84B5FC
:102D4000816084BD85B5826085BD85B5816085BDA6
:102D500080916E00816080936E001092810080915E
:102D600081008260809381008091810081608093E6
:102D7000810080918000816080938000809191002B
:102D80008260809391008091910081608093910096
:102D9000809190008160809390008091C100846058
:102DA0008093C1008091C10082608093C1008091B6
:102DB000C10081608093C1008091C30081608093D5
:102DC000C3008091C00082608093C0008091C200E7
:102DD00081608093C20080917A00846080937A0041
:102DE00080917A00826080937A0080917A0081607D
:102DF00080937A0080917A00806880937A001092A4
:102E00000002109278061092FE018091D700816036
:102E10008093D70080EA8093D80089B5806189BD0E
:102E200089B5826089BD09B400FEFDCF61E070E024
:102E300080E090E00E945F098091D8008F7C8061E3
:102E40008093D8008091E000807F8093E0008091A3
:102E5000E1008E7E8093E1008DE08093E200559A40
:102E6000209AEEEFFFE7859194918B3F9C4D19F4EA
:102E700081E0809377061FB7F8948091D301811188
:102E800027C0E1E1F2E08491E4EEF1E09491E82FD3
:102E9000F0E0EE0FFF1FE854FE4FA591B491EC91C6
:102EA000E92321F461E081E10E94030861E081E10E
:102EB0000E9466088CB580618CBD8CB580648CBD29
:102EC00061E08FE00E94660861E080E10E94660890
:102ED0008091D3018F5F8093D3011FBF0FE112E078
:102EE000F801849131966491882329F00E5F1F4F79
:102EF0000E946608F5CF61E086E00E94030861E069
:102F000070E080E090E00E945F0960E086E00E944F
:102F100003086AE070E080E090E00E945F0961E0F1
:102F200086E00E940308ECE0F2E0E491F0E0EE0FAE
:102F3000FF1FEE50FE4F859194919093D90180939D
:102F4000D801EFEDF1E0E491E093D701E4E0F2E0A5
:102F5000E491F0E0EE0FFF1FEE50FE4F859194914B
:102F60009093D6018093D501E7EDF1E0E491E093F1
:102F7000D4018CB58C7F8CBD8DB581608DBDE09109
:102F8000D801F091D90190818091D701982B90833D
:102F9000A091D501B091D6012C919091D40190953A
:102FA00092239C939081809589238083E6ECF1E0C5
:102FB00021E0E33DF20749F084918EBD00000DB49D
:102FC00007FEFDCF8EB53196F3CFE091D501F0919C
:102FD000D60190818091D401892B8083E091D80122
:102FE000F091D90190818091D701809589238083C8
:102FF00080916400816080936400809164008260AD
:103000008093640080916400806880936400809164
:103010006400806480936400809165008160809387
:1030200065000E94E30987FF1AC080E094E01EBC9F
:1030300000000DB407FEFDCF2EB50197C1F760E08B
:1030400070E08AE00E94A20860E070E08BE00E94DD
:10305000A20860E070E089E00E94A208FFCF4EEE77
:103060005FEF5C834B83E8E14E2E88248A94912C99
:1030700008E010E0842D5B81851BB401681B710999
:103080008AE00E94A2086FEF70E08BE00E94A20825
:103090006FEF70E089E00E94A2080E94BE105B8082
:1030A00060EF5616A4F485E192E00E94000A6BE1FD
:1030B00070E080E090E00E945F0970EF571267C0F7
:1030C0006AEF70E080E090E00E945F0960C02B81B1
:1030D0003C8137FF03C03195219531092770332793
:1030E0008B819C8197FD079673E0959587957A95DE
:1030F000E1F72B803C8037FE05C001973801621A4A
:10310000730A93017C01F694FE2CEE24F794E79465
:1031100040E050E0B801621B730B7E836D83F701C2
:10312000E058FF4F5F018F3FFFEF9F0744F4019688
:10313000485A5F4F7501403B510589F7B4CFD7011D
:10314000A755BD4F60E070E08F3FEFEF9E0709F499
:103150005DC1FB01E40FF51FE85FFE4FE4916D01D7
:10316000CA18DB08CE0CDF1C6E2E712C1301022E48
:1031700002C0220C331C0A94E2F73A822982F6013B
:10318000308069807A806328130120823FC12B81BF
:103190003C812F5F3F4F3C832B832931310509F060
:1031A00069CF6EEE72E080E090E00E945F096FEF01
:1031B00070E08AE00E94A2086FEF70E08BE00E944E
:1031C000A2086FEF70E089E00E94A20865E085E048
:1031D00092E00E944C0B6DE085E092E00E944C0B67
:1031E0001092C80182E090E00E94461E81110E9468
:1031F000C50B809164008E7F8093640087EC809380
:103200007C0080E280937B0062E070E080E090E0F0
:103210000E945F0980917A00806480937A00809197
:103220007A0086FDFCCFE0907800F0907900E09481
:10323000F0948EE580937C0062E070E080E090E0A6
:103240000E945F0980917A00806480937A00809167
:103250007A0086FDFCCF00917800109179000E94E1
:103260003A099B01AC012095309540955095009509
:1032700010950E9DD0010F9DB00D1E9DB00D112417
:103280000E946D1E6B017C010E943A096C0D7D1D30
:103290008E1D9F1D611571058105910511F00E941C
:1032A0003D1E809164008160809364000E94C50B84
:1032B00065E085E092E00E944C0B6DE085E092E0D5
:1032C0000E944C0B84E080930D010E94940E42E01A
:1032D000842E912CA12CB12C5BE0252E312C39E2CF
:1032E000C32ED12C2FB7F8948091C9019091CA01B7
:1032F000A091CB01B091CC012FBF209113022223CA
:1033000091F020910B02382F321B30931402209140
:103310000802309109022F5F3F4F3093090220933A
:1033200008021092130240910F0250911002609116
:1033300011027091120284179507A607B7077CF453
:10334000481B423008F45AC083B7817F83BF83B7DC
:10335000816083BF889583B78E7F83BF4FC02091E4
:103360000A02AC01BD01420F511D611D711D409348
:103370000F02509310026093110270931202809317
:103380000B0290930C02A0930D02B0930E0281E009
:10339000809313020E94E30986FD04C00E94E309A2
:1033A00085FFDBC38091DF018F5F8093DF010E9487
:1033B000E3098472843209F444C00E94E3098076F0
:1033C000803619F484E080930D0180910D018550C1
:1033D000823008F43DC080910D01833009F4A1C111
:1033E00008F03DC0813009F486C1823009F087C3FE
:1033F0008091DF018130D1F580930D0180E090E074
:10340000892B09F46FCF0E94000069CF2115310587
:1034100081F0FB01E40FF51FE85FFE4FE491F0E05F
:103420000D8002C0F595E7950A94E2F7DC90ED294E
:10343000EC936F5F7F4F11966835710509F084CE6C
:1034400076CE80910D018450833008F089C3B5CFCA
:103450000E94E309982F947082FD86C3BCCF85300B
:1034600009F478C1863009F4D6C149C30E94020D1F
:103470000E94E30987FF08C080910C01815080936E
:103480000C0181E080930B010E94E30984FF08C0D6
:1034900080910C018F5F80930C018FEF80930B0163
:1034A00080910C01811102C081E004C090E08D97F1
:1034B0001CF08CE280930C010E94E30982FF08C09B
:1034C00080910A01815080930A0181E08093090173
:1034D0000E94E30983FF08C080910A018F5F8093F7
:1034E0000A018FEF8093090180910A01811102C0C6
:1034F00081E004C090E08D971CF08CE280930A017B
:103500008091DE018823A1F10E94381EA50194015B
:103510000E944E1E672B682B692B11F481E001C0BD
:103520008FEF8093D2010E94381EA50194010E9462
:103530004E1E672B682B692B11F481E001C08FEFC1
:103540008093DD018091DE0191E089278093DE0187
:1035500080E48093080180E2809307019093060144
:103560000E94020D60E971E080E090E00E945F0936
:1035700010910701123009F488C01E3309F485C088
:103580008091080190E02091D10130E0BC016250AF
:103590007109A901465F5F4F461757075CF1AC01FF
:1035A00041505109241735072CF5E12EF12C370134
:1035B00042E0641A710820910C0130E0290154E1C5
:1035C000450E511C461457044CF0C70101972817AB
:1035D000390724F462E08091060136C0C9014296A1
:1035E0008E159F050CF441C0C70102968217930700
:1035F000E4F1F0CF2091050130E0A901485F5F4F71
:10360000481759070CF456C0AC014E5F5F4F421784
:1036100053070CF440C0E12EF12C370162E0661A2A
:10362000710820910A0130E0290174E1470E511C14
:103630004614570484F0C7010197281739075CF432
:10364000809106016EEF81952F8338870E94DE0DF1
:103650002F8138850AC0C90142968E159F052CF02E
:10366000C7010296821793075CF76216730669F02A
:103670006414750451F0C70102968217930729F06C
:103680002E5E3F4FE216F30649F58091DD018195EC
:103690008093DD0123C08230910564F48091D001D4
:1036A0008F3F11F41092D0018091D0018F5F8093F1
:1036B000D0010EC08F3791058CF08091CF018F3FE4
:1036C00011F41092CF018091CF018F5F8093CF01D1
:1036D0009091DE0181E089278093DE0190910801BD
:1036E0008091D201890F809308018091DD01180F2C
:1036F0001093070183CE8091DF01813019F482E0BD
:1037000080930D0182E390E0909316068093150656
:1037100080E290E0909318068093170687E491E08A
:1037200077C01092CF011092D00181E08093DE012A
:1037300082E080930D011092CE011092CD01109283
:10374000D10186E78093050184E180930C01809389
:103750000A0154CE0E94BE10E0E2F0E0F09316069B
:10376000E093150666246394712C7092180660929B
:1037700017068EE491E00E94BC1020E130E0309307
:1037800016062093150630921806209217068BE530
:1037900091E00E94BC104EE250E050931606409318
:1037A000150665E170E070931806609317068DE6C4
:1037B00091E00E94BC1084E390E090931606809301
:1037C0001506EFE1F0E0F0931806E093170684E7A2
:1037D00091E00E94BC1020E1622E712C70921606BE
:1037E00060921506D0921806C09217068BE591E0FC
:1037F0000E94BC1022E230E030931606209315069A
:1038000047E350E0509318064093170689E791E08C
:103810000E94BC106FC180910802909109028370D0
:103820009927892B09F073C00E94E30985FF07C01F
:1038300080910401823018F08150809304010E942D
:10384000E30986FF07C080910401883018F48F5F78
:10385000809304010E94E30987FF0EC08091040158
:1038600099EF980F923010F484E004C084508330B4
:1038700018F481E0809304010E94E30984FF0BC0E7
:1038800080910401843010F484E003C0873018F480
:1038900087E0809304010E94E30983FF38C0E09130
:1038A00004018E2F90E0FC013197E830F10578F5A6
:1038B000EA5AFF4F0C94B11E83E08093030181E02C
:1038C00009C081E08093030182E004C082E080931C
:1038D000030183E08093DC011AC083E0809302013E
:1038E00081E009C081E08093020182E004C082E0AF
:1038F0008093020183E08093DB0109C081E0809323
:10390000010103C01092010182E08093DA010E945C
:10391000BE1068E270E0709316066093150681E0B1
:1039200090E0909318068093170683E891E00E9438
:10393000BC100AE010E010931606009315063092B2
:103940001806209217068BE891E00E94BC10E8E26E
:10395000F0E0F0931606E093150685E1682E712CD1
:1039600070921806609217068BE991E00E94BC10D5
:1039700010931606009315062FE130E030931806D9
:10398000209317068BE891E00E94BC101092160657
:1039900010921506D0921806C092170683EA91E09D
:1039A0000E94BC1086E290E0909316068093150664
:1039B000D0921806C09217068AEA91E00E94BC10C5
:1039C00042E250E0509316064093150667E370E01C
:1039D000709318066093170689E791E00E94BC1067
:1039E000E09104018E2F90E0FC013197E830F10561
:1039F00080F5E25AFF4F2CE00C94B11E45E169E0DE
:103A000070E00BC041E269E070E00DC042E269E0A5
:103A100070E00FC045E16DE170E088E090E017C014
:103A200041E26DE170E08FE190E011C042E26DE1B2
:103A300070E083E490E00BC04FE067E270E084E266
:103A400090E005C045E167E270E082E490E00E940A
:103A500040108091DC01823059F0833081F0813058
:103A6000B1F42CE045E169E070E088E090E00DC041
:103A70002CE041E269E070E08FE190E006C02CE0CC
:103A800042E269E070E083E490E00E94401080919F
:103A9000DB01823059F0833081F08130B1F42CE0C9
:103AA00045E16DE170E088E090E00DC02CE041E27E
:103AB0006DE170E08FE190E006C02CE042E26DE144
:103AC00070E083E490E00E9440108091DA01813040
:103AD00049F0823079F42CE045E167E270E082E45D
:103AE00090E006C02CE04FE067E270E084E290E0F6
:103AF0000E94401085E192E00E94000A7FCC0E9463
:103B0000E30983FF0DC080910001813021F08230F4
:103B100021F486E003C083E001C085E080930D01BD
:103B20008091080280FD16C00E94E30985FF07C04E
:103B300080910001823018F08150809300010E9432
:103B4000E30986FF07C080910001833018F48F5F7E
:103B5000809300010E94940E51CC1092DF0127CC7B
:103B600083E080930D0129CC90930D0134CCE7E2E2
:103B7000F6E01382128288EE93E0A0E0B0E0848346
:103B80009583A683B78386E291E0918380838FEF4C
:103B90009FEF95878487E1E0F2E01382128288E349
:103BA00091E0918380838CE3868380E18187108616
:103BB000178216861786108A118A128A10921606A4
:103BC00010921506109218061092170681E0809345
:103BD000190608958F929F92AF92BF92CF92DF9273
:103BE000EF92FF92CF93DF93EC01688179818A8114
:103BF0009B81611571058105910521F464E279EDE0
:103C00008BE597E02DE133EF41E050E00E944E1E3E
:103C100049015A019B01AC01A7EAB1E40E946D1E63
:103C20006B017C01ACEEB4EFA50194010E947B1EF8
:103C3000DC01CB018C0D9D1DAE1DBF1DB7FF03C068
:103C40000197A109B04888839983AA83BB83BC01EB
:103C5000CD019F77DF91CF91FF90EF90DF90CF90D4
:103C6000BF90AF909F908F9008950E94EA1D089595
:103C70008AE191E00E94EA1D089560931A01709311
:103C80001B0180931C0190931D010895F999FECFAB
:103C900092BD81BDF89A992780B50895052E97FBAE
:103CA0001EF400940E94651E57FD07D00E94801EDE
:103CB00007FC03D04EF40C94651E5095409530954A
:103CC00021953F4F4F4F5F4F089590958095709588
:103CD00061957F4F8F4F9F4F08950E94A21EA59F11
:103CE000900DB49F900DA49F800D911D11240895F7
:103CF000B7FF0C946D1E0E946D1E821B930B0895DE
:103D0000A1E21A2EAA1BBB1BFD010DC0AA1FBB1FDF
:103D1000EE1FFF1FA217B307E407F50720F0A21B51
:103D2000B30BE40BF50B661F771F881F991F1A94BE
:103D300069F760957095809590959B01AC01BD01E8
:103D4000CF010895A29FB001B39FC001A39F700D42
:103D5000811D1124911DB29F700D811D1124911D93
:103D60000895EE0FFF1F0590F491E02D099481E076
:0C3D700090E0F8940C94BC1EF894FFCF77
:103D7C00010103030176012040011401140200E14A
:103D8C00000000000000FFFFFFFF01000000000129
:103D9C00000800000000280FBB0F490F3E0F8F0FCB
:103DAC004D0F6B0F00000000FA0B3307FE07FD07E9
:103DBC0000C18081000000504155534544004465CA
:103DCC0076656C6F706564204279005A6163686136
:103DDC00726961682046616C676F7574004172741A
:103DEC00204279004C454E5A004220746F20657871
:103DFC00697400506164646C653100446F672043E2
:103E0C006F72676920446173636800506164646C0D
:103E1C00653200536F756E643A004F4E2020204F70
:103E2C00464600504C4159004F5054494F4E530098
:083E3C00435245444954530070
:00000001FF
