:100000000C9441080C9469080C9469080C946908D4
:100010000C9469080C9469080C9469080C9469089C
:100020000C9469080C9469080C944B0D0C94BD0D4C
:100030000C9469080C9469080C9469080C9469087C
:100040000C9469080C9469080C9469080C9469086C
:100050000C9469080C9469080C9469080C945A1063
:100060000C9469080C9469080C9469080C9469084C
:100070000C9469080C9469080C9469080C9469083C
:100080000C9467090C9469080C9469080C9469082D
:100090000C9469080C9469080C9469080C9469081C
:1000A0000C9469080C9469080C946908B01AB51A84
:1000B000BA1AC11AC61ACB1AD21AD61AE11AE51AF6
:1000C000E91AED1AF31AF91AFF1A051BF0F89C8EBB
:1000D0008783878E9CF8F00000FEFF030303030371
:1000E000070EFCF80000FEFF0303030303070EFCEA
:1000F000F80000FFFF00000000000000FFFF00000C
:10010000FEFF8383838383C7EE7C380000F8FC0EF8
:1001100007030303070EFCF800003F7FE0C0808068
:10012000C0E07F3FFFFF01010101010101FFFF006E
:1001300000FFFF0C0C0C0C1C3E77E3C100007FFF9E
:10014000C0C0C0C0C0E0703F1F00001F3F70E0C0D3
:10015000C0C0E0703F1F00007FFFC1C1C1C1C1E34B
:10016000773E1C00001F3F70E0C0C0C0E0703F1F22
:10017000000000000001FFFF01000000D5F08D1419
:10018000A1C881CFD9F1AF2000804000000000005D
:10019000000000E0E0E0E0E0E0E00000000000003F
:1001A0000000000000000000000000E0E0E0E0E0EF
:1001B000000000000000000000000000000000003F
:1001C000000000000000000000C0C0C000000000EF
:1001D000000000000000000000000000000000001F
:1001E00000F8F8F8F8F8F8F8000000000000000047
:1001F000000000000000000000000000E0E0E0005F
:1002000000000000000000000000000000000000EE
:100210000000000F0F0F0F0F0F0F00000000000075
:1002200000000000000000000000000303030303BF
:1002300000000000000000000000000000000000BE
:1002400000000000000000000001010100000000AB
:10025000000000000000000000000000000000009E
:100260000003030303030303000000000000000079
:10027000000000000000000000000000000000007E
:1002800000000000000000000000000000001C1C36
:100290001C00000000000000000000000000000042
:1002A000000000000000000000000000000000004E
:1002B000FCFE42424242C2A21C000000FCFE22227E
:1002C0002222020202000000020202FAFEFA0202E8
:1002D00002000000FCFE42424242C2A21C0000009A
:1002E000FCFE020202020202FC000000000000000C
:1002F0000000000000000000000000F8F8F8F8F826
:10030000F8F80000000000000000000000000000FD
:10031000000000000000001F1F1F1F1F0000000042
:1003200000000000000000000000000000000000CD
:10033000000100000000000101000000F8FD45453B
:1003400045454545B9000000F8FCFC0001000404E7
:1003500004F4FCF4040504000000000101000000A6
:100360000001010101010101000000000000000086
:1003700000383838000000000000000303030303C6
:100380000303000000000000000000000000000067
:100390000000000000C0C0C0C0C0C0C0000000001D
:1003A000000000000000000000070707000000E058
:1003B000F018080808081810000000F0F90B0A0AE5
:1003C0000A0A0AF2010000F0F90B0B08080810E015
:1003D00000010301F0F888888888080808000000F8
:1003E000F0F8080808080888700000000000000005
:1003F00000000000000000000000000000000000FD
:10040000008080800000000000000000000000006C
:1004100000000000001F1F1F1F1F1F1F0000000003
:1004200000000000000000000000000000000001CB
:100430000306040404040602000000030704040485
:10044000040404030000000307040404040402017C
:1004500000000000030704848484848404000000F6
:100460000307010101010306040000000000000071
:100470000000E0E0E00000000000000000000000DC
:100480000003030300000000000000000000000063
:10049000000000C0C0C0000000000000000000001C
:1004A000000000000000F0F0F0F0F000000000009C
:1004B0000000000000000000E0E0E0E0E0E0E0001C
:1004C000000000000000000000000000000000002C
:1004D000000000000000000F0F0F0F0F00000000D1
:1004E000000000000000000000000000000000000C
:1004F0000000000000000000000000000000E0E03C
:10050000E0E0E0000000000000000000000000004B
:1005100000000001010100000000000000000000D8
:1005200000000000000001010101010000000000C6
:1005300000000000000000000F0F0F0F0F0F0F0052
:1005400000000000000000000000000000000E0E8F
:100550000E0000000000000000000000000000008D
:100560000000000000000707070000000000000076
:100570000000000000000000000000000000030375
:100580000303030000000000000000000000000062
:10059000000000000000000000000E00000000004D
:1005A000000000000000000000001E007C000000B1
:1005B000000000000000000000003E01FE000000FE
:1005C00000000000000000001F00FF03FC8000008E
:1005D0000000000000000001FFC3FE07F9C000009A
:1005E0000000000000000007FEA7FA07E3C00000BB
:1005F000000000000000003FFFFFF407CFE0000014
:10060000000000000000007FFFFFC4079FE0000023
:1006100000000000000001FFFFFF50073FE1400025
:100620000000000000000FFFFFF2B0067FE0700046
:100630000000000010007FFFFFF4E0025EC0180021
:10064000080000003C00FFFFFFFF80000380000067
:1006500036C000002601FFFFFFF00000C7000200C7
:10066000FD400000271FFFFFFFF000007C00060395
:100670000160000037FFFFFFFFF0000000000304EF
:1006800000100003FFFFFFFFFFF000000000011C4F
:1006900000180007FFBFFFFD7FF0000000000128E9
:1006A0000008000CFFEFFFFEBFF00000000000A0FC
:1006B0000000001DFFBFFFFE5FE0000000000080A3
:1006C0000000007E7FCFFFFFFBE000000000000085
:1006D000000200FE7F67FFF0FDE000000000000068
:1006E0000000001E7F8FFF8007E000000000000078
:1006F0000001003FF81FFE0007E0000000000000BE
:10070000000000FFE3FFF80007C000000000000049
:100710000000007FDFF3E0000DC0000000000000DB
:100720000000000017F780000D000000000000002E
:100730000000000017FC00000000000000000000A6
:1007400000000000000000000000000000000000A9
:100750000000000000000000000000000000000099
:10076000000000000000000000000007FFE01FF094
:10077000000000000000000000003C1FEBF07FFCC8
:100780003FC0F9F83E07FF01FFF83C3FEBF0FFFEEA
:100790003FC0FDFC7E7FFFC3FFFE3C3FBEF9FFFF75
:1007A000BFC0FDFF7E7FFFF3FFFE3C3FA2F9FFFFCE
:1007B0009FC0FDFFFF7FFFF3FFFE3C3FE3F9F8C75B
:1007C000DFF1FCFFFF7FFFF3FFFE3C3FE3F9F8C7DB
:1007D000CFFFFEFFFF7FFFF3FFFE3C3FFFF9FFFF70
:1007E000CFFFFEFFFF7FFFF3FFFE3C3FFFF9CC1C76
:1007F000E7FFFEFFFF3FF803FFC03C3FFFF3C804E5
:10080000E7FFFEFFFF3FF003FFC03C3FEBF9F807B7
:10081000E7FFFEFFFF3FF003FFFE3C3FAAFCF807A7
:10082000E7FFFEFFFFBFF003FFFE3C3FBEFEF80701
:10083000E7FFFEFFFFBFFC03FFFE3C3FE3FEFC07BC
:10084000E7FFFEFDFFBFFFFBFFC03C3FE3FE7E1F57
:10085000E7FFFEFC7FBFFFFBFFC0003FE3FE7FFF23
:10086000CFFFFCFC7FBFFFF3FFFE3C3FFFFE7FFF9F
:10087000C7FFF9FE3F9FFFC3FFFE3C3FFFF03FFF76
:10088000C3FFF07C0F01FC00FFFE3C0000000000F5
:100890000000000000000000000000000000000058
:1008A0000000000000000000000000000000000048
:1008B0000000000000000000000000000000000038
:1008C0000000000000000000000000000000000028
:1008D0000000000000000000000000000000000018
:1008E0000000000000000000000000000000000008
:1008F00000000000000000000000000000000000F8
:1009000000000000000000000000000000000000E7
:1009100000000000000000000000000000000000D7
:1009200000000000000000000000000000000000C7
:1009300000000000000000000000000000000000B7
:1009400000000000000000000000000000000000A7
:100950000000000000000000000000000000000097
:100960000000000000000000000000000000000087
:100970000000000000000000000000000000000077
:100980000000000000000000000000A140EDC0EDEC
:10099000C0EDC0FFC0FFC0FFC0FFC0FFC01E0061B0
:1009A000809E403F006D806D80BF40BF40BF409241
:1009B000409E400000000000000000000000000019
:1009C00000000000000000000000009E409240BFB8
:1009D00040BF40BF406D806D803F009E4061801EE3
:1009E00000FFC0FFC0FFC0FFC0FFC0EDC0EDC0ED05
:1009F000C0A1400000000000000000000000000056
:100A00000000000000000000000000A140E1C0ED77
:100A1000C0FFC0FFC0FFC0FFC0FFC0BF401E006DD1
:100A20008040803F007F805E805E80BF40B3409EFC
:100A300040804000000000000000000000000000B6
:100A4000000000000000000000000080409E40B355
:100A500040BF405E805E807F803F0040806D801E92
:100A600000BF40FFC0FFC0FFC0FFC0FFC0EDC0E13E
:100A7000C0A14000000000000000000000000000D5
:100A80000000000000000000000000A140E1C0EDF7
:100A9000C0EDC0FFC0FFC0FFC0FFC0FFC0BF4040EF
:100AA000805E80FFC0EDC0FFC0F3C0A140CCC0E1BC
:100AB000C0A1400000000000000000000000000095
:100AC0000000000000000000000000A140E1C0CCD8
:100AD000C0A140F3C0FFC0EDC0FFC05E804080BF3A
:100AE00040FFC0FFC0FFC0FFC0FFC0EDC0EDC0E1D0
:100AF000C0A1400000000000000000000000000055
:100B000000000000000000000000000000000000E5
:100B10003E5B4F5B3E3E6B4F6B3E1C3E7C3E1C186B
:100B20003C7E3C181C577D571C1C5E7F5E1C0018C9
:100B30003C1800FFE7C3E7FF0018241800FFE7DBBD
:100B4000E7FF30483A060E2629792926407F050519
:100B500007407F05253F5A3CE73C5A7F3E1C1C0856
:100B6000081C1C3E7F14227F22145F5F005F5F061B
:100B7000097F017F006689956A606060606094A269
:100B8000FFA29408047E040810207E201008082A82
:100B90001C08081C2A08081E101010100C1E0C1E21
:100BA0000C30383E3830060E3E0E060000000000C5
:100BB00000005F00000007000700147F147F14246A
:100BC0002A7F2A12231308646236495620500008EF
:100BD000070300001C2241000041221C002A1C7F48
:100BE0001C2A08083E080800807030000808080821
:100BF00008000060600020100804023E5149453E94
:100C000000427F400072494949462141494D33180D
:100C100014127F1027454545393C4A494931412145
:100C20001109073649494936464949291E00001429
:100C30000000004034000000081422411414141471
:100C400014004122140802015909063E415D594E23
:100C50007C1211127C7F494949363E414141227F35
:100C60004141413E7F494949417F090909013E41CE
:100C70004151737F0808087F00417F4100204041B7
:100C80003F017F081422417F404040407F021C0208
:100C90007F7F0408107F3E4141413E7F09090906DC
:100CA0003E4151215E7F09192946264949493203AF
:100CB000017F01033F4040403F1F2040201F3F4035
:100CC00038403F63140814630304780403615949EE
:100CD0004D43007F41414102040810200041414141
:100CE0007F04020102044040404040000307080026
:100CF00020545478407F28444438384444442838A9
:100D00004444287F385454541800087E090218A41B
:100D1000A49C787F0804047800447D400020404073
:100D20003D007F1028440000417F40007C0478048F
:100D3000787C080404783844444438FC1824241887
:100D400018242418FC7C080404084854545424042F
:100D5000043F44243C4040207C1C2040201C3C405C
:100D600030403C44281028444C9090907C4464547B
:100D70004C4400083641000000770000004136086E
:100D80000002010204023C2623263C1EA1A161129E
:100D90003A4040207A3854545559215555794121CB
:100DA00054547841215554784020545579400C1EB4
:100DB000527212395555555939545454593955545C
:100DC00054580000457C410002457D420001457CAD
:100DD00040F0292429F0F0282528F07C54554500BE
:100DE0002054547C547C0A097F49324949493232A3
:100DF00048484832324A4848303A4141217A3A42DA
:100E0000402078009DA0A07D39444444393D4040B5
:100E1000403D3C24FF2424487E4943662B2FFC2F71
:100E20002BFF0929F620C0887E09032054547941FC
:100E30000000447D413048484A32384040227A0020
:100E40007A0A0A727D0D19317D2629292F28262933
:100E500029292630484D4020380808080808080885
:100E600008382F10C8ACBA2F102834FA00007B00C5
:100E70000008142A142222142A140895002200952E
:100E8000AA005500AAAA55AA55AA000000FF001002
:100E90001010FF00141414FF001010FF00FF1010BA
:100EA000F010F0141414FC001414F700FF0000FFFD
:100EB00000FF1414F404FC141417101F10101F105A
:100EC0001F1414141F00101010F0000000001F1059
:100ED0001010101F10101010F010000000FF101064
:100EE00010101010101010FF10000000FF14000070
:100EF000FF00FF00001F10170000FC04F41414177B
:100F000010171414F404F40000FF00F71414141460
:100F1000141414F700F7141414171410101F101FD2
:100F2000141414F4141010F010F000001F101F001F
:100F300000001F14000000FC140000F010F010105E
:100F4000FF10FF141414FF141010101F00000000F5
:100F5000F010FFFFFFFFFFF0F0F0F0F0FFFFFF00E9
:100F600000000000FFFF0F0F0F0F0F3844443844FC
:100F70007C2A2A3E147E02020606027E027E02635C
:100F8000554941633844443C04407E201E200602FB
:100F90007E020299A5E7A5991C2A492A1C4C7201D8
:100FA000724C304A4D4D303048784830BC625A4619
:100FB0003D3E494949007E0101017E2A2A2A2A2A0A
:100FC00044445F444440514A444040444A514000F4
:100FD00000FF0103E080FF000008086B6B08361279
:100FE000362436060F090F060000181800000010FE
:100FF00010003040FF0101001F01011E00191D17E4
:1010000012003C3C3C3C0000000000080B000202C7
:101010000201000904000001020200000524001082
:10102000010524010101042402060524060001072C
:1010300005810310004009040100020A00000007B6
:101040000502024000000705830240000004030976
:101050000412010002EF0201404123368000010129
:1010600002030141726475696E6F204C4C4300416C
:10107000726475696E6F204C656F6E6172646F008B
:10108000D71B11241FBECFEFDAE0DEBFCDBF11E0CA
:10109000A0E0B1E0E0E8FAE302C005900D92A03DC7
:1010A000B107D9F726E0A0EDB1E001C01D92A1384B
:1010B000B207E1F718E0C1E4D8E004C02197FE01CF
:1010C0000E94331DC034D107C9F70E94C3140C9489
:1010D0003E1D0C940000CF92DF92EF92FF920F938F
:1010E0001F93CF93DF936C017A018B01C0E0D0E0B6
:1010F000CE15DF0581F0D8016D918D01D601ED91FE
:10110000FC910190F081E02DC6010995892B11F029
:101110002196EECF7E01C701DF91CF911F910F91F4
:10112000FF90EF90DF90CF9008958091E401E091DF
:10113000E201F091E301882349F0CF0102969093F8
:10114000E3018093E201859194910895CF01029685
:101150009093E3018093E201808191810895CF9281
:10116000DF92EF92FF920F931F93CF93DF930E9432
:101170009508811520E8920761F4809171008D7FB8
:101180008093710010929100469847981092E10167
:101190008BC021E02093E101813020E8920751F4D7
:1011A0008091DF019091E0019093E3018093E2014F
:1011B0000E94950897FD05C02091DE01222309F4C5
:1011C0003FC02091DD0121113BC021E02093E501CA
:1011D000EC01DF77209769F481E08093E60146987F
:1011E0003FE9C32E3FE0D32EE12CF12CCAEFD0E033
:1011F00014C08E0120E030E060E472E48FE090E003
:10120000A90198010E94D01C69017A0181E0C81AE5
:10121000D108E108F1081092E601E0910C06F09186
:101220000D060995811103C081E08093E60180914C
:10123000E5018823B9F18091E601811133C003C033
:101240001092E501C5CF46992DC0479A0E94950896
:10125000009771F09C01DE010E94241DDC01CB018E
:1012600029E0B595A795979587952A95D1F703C05D
:101270008FEF9FEFDC01109290002AE02093910005
:10128000D0929900C09298008093E7019093E80172
:10129000A093E901B093EA0180917100826080938C
:1012A000710002C04798D2CFDF91CF911F910F916B
:1012B000FF90EF90DF90CF9008958091D001089536
:1012C0000895089580E090E008950E94391D1F92CE
:1012D0000F920FB60F9211242F933F934F935F936A
:1012E0006F937F938F939F93AF93BF93EF93FF93EE
:1012F0008091E7019091E801A091E901B091EA01A4
:10130000892B8A2B8B2B81F18091E60181110BC0F7
:1013100098B180E4892788B98091E501882319F084
:1013200088B1805888B98091E7019091E801A09137
:10133000E901B091EA01181619061A061B06B4F461
:101340008091E7019091E801A091E901B091EA0153
:101350000197A109B1098093E7019093E801A09357
:10136000E901B093EA0102C00E94AF08FF91EF913A
:10137000BF91AF919F918F917F916F915F914F91AD
:101380003F912F910F900FBE0F901F9018952D9A9F
:101390000895BC0180E090E00C9420108FB18095FE
:1013A000807F669B88601C9B846008950C94BA1CA7
:1013B0003E9A3F9A81E08093D001089580E00C949A
:1013C000171280389105B8F460347105A0F490E1EB
:1013D00021E061FD24E060FD220F62FD2295687F1F
:1013E000969FD0011124A80FA250BE4F8C91822B42
:1013F00040FF82278C9308952F923F924F925F92E5
:101400006F927F928F929F92AF92BF92CF92DF9214
:10141000EF92FF920F931F93CF93DF93CDB7DEB779
:1014200027970FB6F894DEBF0FBECDBF9F838E8384
:101430006A30A1F4DC0155962C91559751968D9107
:101440009C915297B8E02B9F800D911D1124EE8145
:10145000FF81928B818B108A1786ADC06D3009F4A5
:10146000AAC0AE81BF811F960D911C915097003884
:101470001105BCF0EE81FF812589422F50E0878560
:101480009089F6E02F9F800D911D1124AE81BF81C0
:1014900050969C938E931F9756962C91211175C050
:1014A0008AC0EE81FF8181889288F0E48F169104D2
:1014B0000CF7AE81BF8155963C90C801B5E03B9ECC
:1014C000800D911D112418161906A4F6432C512CD9
:1014D000C401E8E03E9E800D911D112418161906E6
:1014E0004CF6AE81BF815496BC91BC83EE81FF81E6
:1014F000F389FD8325E0629FB0011124CB01855F54
:10150000944F3C011982F3012490F981F53009F4DC
:10151000212C640128E02B8320FE03C03D813A8307
:1015200002C08C818A839A81911104C0AC81BD81F3
:10153000AB17B9F078018E2D801B831590F45601FE
:101540008A2D8C19831548F44A81B501C7010E9480
:10155000E109EFEFAE1ABE0AF3CFFFEFEF1AFF0A71
:10156000EACF26942B8121502B83C40CD51C21114A
:10157000D3CF39813F5F3983040D151DC301019617
:101580003C01363009F0BFCF75CF6AEF640390019C
:10159000659F300D112420583F4F281739075CF400
:1015A000AE81BF81ED91FC9111970190F081E02D0A
:1015B0006AE0CD01099581E090E027960FB6F89496
:1015C000DEBF0FBECDBFDF91CF911F910F91FF9076
:1015D000EF90DF90CF90BF90AF909F908F907F90D3
:1015E0006F905F904F903F902F9008950F93CF93FF
:1015F000DF930E947C1220E030E040E850E060E0A1
:1016000070E080E090E00E9429142FE330E040E891
:1016100050E06FE370E080E090E00E9429142FE337
:1016200030E040E450E060E070E080E490E00E9450
:10163000291443E260E270E080E490E00E946113CC
:101640008CE190E090931E0680931D06C3E0D0E0ED
:10165000D0932006C0931F066091D30170E080E014
:1016600090E04AE00E94201380E690E090931E06EE
:1016700080931D06D0932006C0931F066091D4016D
:1016800070E080E090E04AE00E9420138091030126
:10169000823039F1833019F08130B1F511C0909169
:1016A0000B0160910C018091D50170E004E12AE00A
:1016B000913019F44BEC5AE024C04BE85AE021C0B9
:1016C00090910B0160910C018091D50170E004E1D3
:1016D0002AE0913019F44BE45AE013C04BE05AE091
:1016E00010C090910B0160910C018091D50170E0C8
:1016F00004E12AE0913019F44BEC59E002C04BE8C8
:1017000059E090E00E948F1280910201823039F1FD
:10171000833019F08130B1F511C0909109016091C9
:101720000A018091050170E004E12AE0913019F48A
:101730004BEC5AE024C04BE85AE021C090910901DB
:1017400060910A018091050170E004E12AE0913086
:1017500019F44BE45AE013C04BE05AE010C09091EA
:10176000090160910A018091050170E004E12AE01D
:10177000913019F44BEC59E002C04BE859E090E08D
:101780000E948F126091070170E08091080142E091
:1017900090E00E94611382E196E0DF91CF910F917A
:1017A0000C94DE09CF92DF92EF92FF920F931F937A
:1017B000CF93DF932091D1013091D2012370332751
:1017C000232B29F4909106019F5F9093060190913D
:1017D0000601953018F094E0909306018093D601AD
:1017E00080910801680F60930801C0E0D0E00EEF1F
:1017F00015E094E1E92EF12CC12C20E8D22E809145
:101800000101882379F1FE01EE0FFF1FE25EFE4F1A
:1018100020813181809171008D7F809371001092C1
:10182000E4011093E3010093E2011093E0010093BF
:10183000DF013093FF052093FE05F0920106E09250
:101840000006D0920306C09202060E94AF08CD2B7C
:1018500049F46EE170E080E090E00E942010C1E069
:10186000D0E0CDCF8091D1019091D201019690939B
:10187000D2018093D101DF91CF911F910F91FF9001
:10188000EF90DF90CF9008950F93CF93DF930E9456
:101890007C1200E420E84BE855E060E070E080E076
:1018A00090E00E948F1284E090E090931E06809357
:1018B0001D06C7E3D0E0D0932006C0931F068BEB34
:1018C00091E00E947A1280E290E090931E0680934D
:1018D0001D06D0932006C0931F0680EC91E00E9465
:1018E0007A128EE490E090931E0680931D06D093AA
:1018F0002006C0931F0688EC91E00E947A12809126
:1019000000012BE0813031F44CE165E370E082E0CE
:1019100090E00AC04DE265E370E0823019F48EE198
:1019200090E002C08CE490E00E94261282E196E0F2
:10193000DF91CF910F910C94DE09FC018485958590
:1019400097FD0BC09FB7F89482E08093E9008091E7
:10195000F2009FBF90E0019608959FB7F89482E04F
:101960008093E9008091F2009FBF90E0089540913C
:10197000F7015091F8012091F5013091F6014217DD
:101980005307B4F49091E8009570E1F39091E8006A
:1019900092FD19C08093F1008091F7019091F801B8
:1019A00001968F739927892B19F48EEF8093E800A5
:1019B0008091F7019091F80101969093F80180933E
:1019C000F70181E0089580E00895DF92EF92FF92A1
:1019D0000F931F93CF93DF93D82E8A017B01E40EE0
:1019E000F51EEB01CE15DF0571F0D7FE03C0FE0139
:1019F000849101C088810E94B70C21968111F2CF99
:101A00008FEF9FEF01C0C801DF91CF911F910F9120
:101A1000FF90EF90DF900895615030F02091F10039
:101A2000FC0120830196F8CF289884E68093FC017E
:101A300008950F931F93CF93DF931F92CDB7DEB717
:101A400082E0898342E450E06BE070E180E80E942C
:101A5000E50C0E94AF14DC0112960D911C911397B6
:101A60000115110589F0D801ED91FC910280F381F7
:101A7000E02DBE016F5F7F4FC801099597FD04C03F
:101A8000F80100851185ECCF89810F90DF91CF910E
:101A90001F910F9108951F920F920FB60F9211246C
:101AA0008F939F938091E1009091E100937F9093B9
:101AB000E10083FF0FC01092E90091E09093EB00EA
:101AC0001092EC0092E39093ED001092FD0198E0EB
:101AD0009093F00082FF20C093E09093E9009091F2
:101AE000F200992319F09AE39093E8009091FA019B
:101AF000992339F09091FA0191509093FA0199232A
:101B000089F19091FC01992339F09091FC01915059
:101B10009093FC01992341F184FF10C08091E20071
:101B20008E7E81608093E2008091E1008F7E8093C1
:101B3000E1008091FB018E7E806111C080FF16C0A4
:101B40008091E2008E7E80618093E2008091E100CE
:101B50008E7E8093E1008091FB018E7E8160809378
:101B6000FB0104C05D9ACDCF289AD6CF9F918F916B
:101B70000F900FBE0F901F9018951F920F920FB6E7
:101B80000F921124CF92DF92EF92FF920F931F9347
:101B90002F933F934F935F936F937F938F939F9375
:101BA000AF93BF93EF93FF93CF93DF93CDB7DEB7A0
:101BB0006C97DEBFCDBF1092E9008091E80083FFF3
:101BC000FBC168E0CE0145960E940C0D82EF809328
:101BD000E8008D8987FF05C09091E80090FFFCCF59
:101BE00003C09EEF9093E800982F907609F0C6C04E
:101BF0009E894F89588D2F89F88C91110CC080389F
:101C000029F48091EF018093F10002C01092F1005D
:101C10001092F10045C1913051F4811141C1413020
:101C2000510509F03DC18091EF018D7F0BC09330CC
:101C300061F4811135C14130510509F031C1809104
:101C4000EF0182608093EF012BC1953049F48091C0
:101C5000E80080FFFCCF822F80688093E30020C1E2
:101C6000963009F05EC00B8D1C8D22E01092E900C9
:101C70001092F8011092F701F21232C01092F601A0
:101C80001092F5010E94190D99E0BE016F5F7F4F20
:101C9000DB01E92F1D92EA95E9F79983FA8291E039
:101CA0009E8390EA98879AEF99872091F701309167
:101CB000F801275F3F4F3C832B838D831092E9000F
:101CC0001092F8011092F7011093F6010093F501BC
:101CD00049E050E080E00E94E50C0E94190DE0C050
:101CE0001093F6010093F5010E94AF14DC011296E7
:101CF0000D911C9113970115110509F4BBC0D80172
:101D0000ED91FC910480F581E02DBE016B5E7F4F6B
:101D1000C8010995009709F0C7C0F8010085118531
:101D2000EACF973009F445C1983021F481E08093DF
:101D3000F100B6C0993009F0B3C0837009F039C121
:101D4000E3E2F1E081E031E096E32081211109C076
:101D50008EE78093EA001092EA008F898093FD015C
:101D60009FC08093E9003093EB0021912093EC0019
:101D70009093ED008F5F873041F7EACF8B8D9C8D7C
:101D80001092E9001092F8011092F7019093F60179
:101D90008093F501898D811153C08E899D89913A77
:101DA00049F4813209F005C147E050E062E171E099
:101DB00080E0BBC0913209F0FCC0833269F48F89A6
:101DC000988DA0E0B0E080930E0190930F01A09356
:101DD0001001B093110164C0803269F48091E80071
:101DE00082FFFCCF67E082E191E00E940C0D8BEF57
:101DF0008093E80055C0823209F052C08F898093E9
:101E00001901EEEFFFE7859194918B3F9C4D19F0FE
:101E1000E0E0F8E002C0EEEFFAE08091120190916C
:101E20001301A0911401B0911501803B9440A105CC
:101E3000B10509F09EC08091190180FF79C099C059
:101E40000E94AF14FC01028113810115110509F4F0
:101E5000B0C0D801ED91FC910190F081E02DBE0160
:101E60006B5E7F4FC801099581111AC0F80100858A
:101E70001185EBCFF1E0FF1609F44EC0F3E0FF123D
:101E800098C08F89882309F44AC0823089F440E8D9
:101E900060E18FE690E10E94A21B882309F489C0CB
:101EA0008EEF8093E80088C018161906CCF381C025
:101EB000813029F440E86BE083E690E1ECCF833099
:101EC00009F077C00E94AF14DC011296ED90FC90EF
:101ED00013978E010F5F1F4F6801E114F10479F031
:101EE000D701ED91FC910680F781E02DB801C70183
:101EF0000995080F111DF701E084F184EECFD80198
:101F00001C92F60101900020E9F73197BF016C198E
:101F10007D0940E0C601BFCF61E570E102C06DE41C
:101F200070E1FB01449150E080E80E94E50CB8CFDD
:101F3000EE3F2AE0F20751F0808191818737A7E7D1
:101F40009A0721F09093FF0A8093FE0A87E797E7AC
:101F500091838083809160008093F9019BE088E108
:101F60000FB6F894A895809360000FBE9093600020
:101F700097CF808191818737974709F091CFA895B6
:101F8000809160008861809360008091F901809366
:101F90006000EE3FBAE0FB0739F08091FE0A9091B5
:101FA000FF0A918380837CCF1092FF0A1092FE0A71
:101FB00077CF81E28093EB006C960FB6F894DEBF8A
:101FC0000FBECDBFDF91CF91FF91EF91BF91AF9148
:101FD0009F918F917F916F915F914F913F912F9141
:101FE0001F910F91FF90EF90DF90CF900F900FBE59
:101FF0000F901F9018953FB7F8948091F101909140
:10200000F201A091F301B091F40126B5A89B05C09F
:102010002F3F19F00196A11DB11D3FBFBA2FA92F67
:10202000982F8827820F911DA11DB11DBC01CD01E4
:1020300042E0660F771F881F991F4A95D1F70895D0
:102040008F929F92AF92BF92CF92DF92EF92FF92C8
:102050006B017C010E94FB0F4B015C01C114D10498
:10206000E104F104F1F00E94FB0FDC01CB018819BF
:102070009909AA09BB09883E9340A105B10570F3EF
:1020800021E0C21AD108E108F10888EE880E83E049
:10209000981EA11CB11CC114D104E104F10419F76C
:1020A000DDCFFF90EF90DF90CF90BF90AF909F90EB
:1020B0008F9008951F920F920FB60F9211242F93B5
:1020C0003F938F939F93AF93BF938091EB01909138
:1020D000EC01A091ED01B091EE013091F00123E00F
:1020E000230F2D3720F40196A11DB11D05C026E850
:1020F000230F0296A11DB11D2093F0018093EB01E7
:102100009093EC01A093ED01B093EE018091F10169
:102110009091F201A091F301B091F4010196A11DFB
:10212000B11D8093F1019093F201A093F301B0935C
:10213000F401BF91AF919F918F913F912F910F909B
:102140000FBE0F901F9018959C01240F311D121681
:10215000130674F5803891055CF597FF02C080E0A6
:1021600090E02138310514F020E830E0281BAB0165
:102170004770552731E001C0330F4A95EAF777FFE2
:1021800002C0695F7F4F43E0759567954A95E1F717
:102190007695762F662777956795860F971FFC01B2
:1021A000E250FE4F215020F08081832B8193FACFA3
:1021B00008952091FD01211103C08FEF9FEF089535
:1021C0005FB7F89422E02093E9002091F20030E01C
:1021D0001216130614F421E030E0422FFC0184E6CD
:1021E000415038F028988093FC019091F100919330
:1021F000F7CF2115310521F08091F200882319F0E5
:102200005FBFC90108958BE68093E800F9CF2FB72F
:10221000F89483E08093E9009091E800892F807220
:1022200095FF04C09091F20080E4891B2FBF0895B0
:10223000CF93DF931F92CDB7DEB76983DC01ED91B9
:10224000FC910280F381E02D41E050E0BE016F5F20
:102250007F4F09950F90DF91CF91089583E0809390
:10226000E9008091F200882319F08AE38093E80066
:1022700008950E94071190E00895CF93DF931F9275
:10228000CDB7DEB7FC018485958597FD05C02FEF9E
:102290003FEF358724870BC0CE0101960E94D910ED
:1022A000019719F4898190E002C08FEF9FEF0F90A2
:1022B000DF91CF9108950F931F93CF93DF931F92D8
:1022C000CDB7DEB78C01FC018485958597FF0EC0E4
:1022D000CE0101960E94D910019719F4898190E0EE
:1022E00002C08FEF9FEFF80195878487F8018485FE
:1022F00095850F90DF91CF911F910F9108950097D1
:1023000069F0FC0101900020E9F73197AF01481B0B
:10231000590BBC018EE096E00C946B0880E090E0D5
:1023200008958F929F92AF92BF92CF92DF92EF92D9
:10233000FF920F931F93CF93DF936C017B018A0170
:1023400080911901882309F45CC08091FD018823E4
:1023500009F457C08091FB0180FF05C08091E00027
:1023600082608093E000E801B12C8AEFA82E93E010
:10237000892E2AE3922E209711F4BB20D9F10E94D6
:10238000071181110AC0AA94AA20D9F161E070E076
:1023900080E090E00E942010EECF282F30E0C2179E
:1023A000D3070CF48C2F9FB7F8948092E90020910A
:1023B000E80025FF1DC0282F30E0C21BD30BF7011A
:1023C000815020F041914093F100FACFE20EF31ECC
:1023D000BB2019F09092E8000AC08091E80085FDCA
:1023E00007C09092E800BB24B394209709F0B12C69
:1023F0009FBFC1CF5D9884E68093FA011016110645
:1024000044F081E090E0F6019383828380E090E0E5
:1024100001C0C801DF91CF911F910F91FF90EF9004
:10242000DF90CF90BF90AF909F908F900895EEEF88
:10243000F1E0A0E0B8E000800EBC8111012C119702
:10244000A0FDFDCF0192B9F70DB408959F92AF9210
:10245000BF92CF92DF92EF92FF920F931F93CF9391
:10246000DF938C01EB01942EF22E6034710510F491
:102470000E94A4105E01AF0CB11CB501615071093E
:102480006034710520F4492DC8010E94A410D7FFC3
:1024900002C0C0E0D0E07E01650181E4A816B1046D
:1024A0001CF080E4C82ED12CEC14FD044CF441E067
:1024B000B701C8010E94E1098FEFE81AF80AECCFD2
:1024C000090D111D01501109CC15DD053CF441E049
:1024D000BE01C8010E94E1092196F6CFDF91CF919C
:1024E0001F910F91FF90EF90DF90CF90BF90AF9032
:1024F0009F9008950C947F1180E0EEEFF1E0811140
:102500008FEF002481938193819381930394D1F77A
:10251000EEE0F6E0128A118A108A178608952F924B
:102520003F924F925F926F927F928F929F92AF9263
:10253000BF92CF92DF92EF92FF920F931F93CF93B0
:10254000DF9300D000D0CDB7DEB7E22EF12C97019B
:10255000280F391F37FD5DC0803891050CF059C038
:1025600010E09801260F371F37FD53C06034710506
:102570000CF04FC03A012B011C01C70107969C01CA
:1025800093E0359527959A95E1F73A832983A12C15
:10259000B12CC12CD12CC016D106DCF51C821B82BB
:1025A00042018C0C9D1C4B815C814E155F054CF5E6
:1025B000FA0183E0F595E7958A95E1F7EA0DFB1DB1
:1025C000E60DF71D84919A012770332740E850E00B
:1025D00002C0559547952A95E2F7E82FF0E0E423ED
:1025E000F523EF2B41F041E0B4018B819C81820DFA
:1025F000931D0E94E1098B819C8101969C838B83B2
:10260000D2CF9FEFC91AD90A29813A81A20EB31EEF
:10261000C2CF0F900F900F900F90DF91CF911F912D
:102620000F91FF90EF90DF90CF90BF90AF909F9071
:102630008F907F906F905F904F903F902F90089574
:102640008F929F92AF92BF920F931F93CF93DF937E
:10265000CDB7DEB7A1970FB6F894DEBF0FBECDBFE2
:1026600019A2423008F44AE08E010F5D1F4F842EFC
:10267000912CA12CB12CA50194010E94021DE62FE2
:10268000B901CA0101501109EA3014F4E05D01C03A
:10269000E95CD801EC93232B242B252B61F7C8018F
:1026A0000E947F11A1960FB6F894DEBF0FBECDBF7A
:1026B000DF91CF911F910F91BF90AF909F908F901E
:1026C00008952F923F924F925F926F927F928F92D6
:1026D0009F92AF92BF92CF92DF92EF92FF920F93B1
:1026E0001F93CF93DF9300D000D0CDB7DEB77C012E
:1026F0008B01242F30E03C832B8381E090E05C0150
:10270000A21AB30A1901319421943108220C331C06
:10271000B901600F711F41E0C7010E94E109B801D2
:102720008B819C81681B790B41E0C7010E94E10904
:1027300041E0B8018B819C818E0D9F1D0E94E109B3
:1027400041E0B801C7012B813C81821B930B0E94A1
:10275000E109C12CD12C81E090E09A8389832B81FF
:102760003C81C216D3060CF05DC0B7FC09C02150F5
:1027700031093C832B8332E0230E311CA20CB31CA5
:102780008FEFC81AD80A29813A812E5F3F4F3A83CA
:102790002983A20EB31E37016C0C7D1C41E08B8097
:1027A0009C80800E911EB401C3010E94E1092701A3
:1027B0004C185D0841E0B401C2010E94E10941E00A
:1027C00048018B819C81881A990AB401C3010E9437
:1027D000E10941E0B401C2010E94E1094601800E15
:1027E000911E41E0B4016B807C806E0C7F1CC301A4
:1027F0000E94E10941E0B40127012B813C81421A8A
:10280000530AC2010E94E10948018C189D0841E069
:10281000B401C3010E94E10941E0B401C2010E9478
:10282000E1099DCF0F900F900F900F90DF91CF9106
:102830001F910F91FF90EF90DF90CF90BF90AF90DE
:102840009F908F907F906F905F904F903F902F90D0
:1028500008952F923F924F925F926F927F928F9244
:102860009F92AF92BF92CF92DF92EF92FF920F931F
:102870001F93CF93DF93EC018B017A016901C61A94
:10288000D70AD7FE03C0D194C194D10847018C1A4E
:102890009D0A97FE03C09194819491088C149D0425
:1028A00054F49E2D8F2D7901292F382F9C2F8D2F99
:1028B000E801092F182FEC16FD0654F4902F812FF4
:1028C0008901292F382F9C2F8D2FE701E92EF82E13
:1028D00017012C1A3D0A2901401A510A57FE03C05C
:1028E000519441945108310137FE03C08FEF681AAB
:1028F000780A759467940217130714F08FEF01C0DC
:1029000081E0A82E880FBB08EC16FD06ACF041E074
:102910008C149D041CF4BE01C80102C0B801CE0194
:102920000E94E1096418750877FE04C00A0D1B1D9A
:10293000620C731C2196E8CFDF91CF911F910F910C
:10294000FF90EF90DF90CF90BF90AF909F908F90CF
:102950007F906F905F904F903F902F90089580915F
:10296000290681110DC082E08093250684E08093C2
:102970002606109228061092270681E080932906E9
:1029800085E296E00895789484B5826084BD84B52C
:10299000816084BD85B5826085BD85B5816085BD5A
:1029A00080916E00816080936E0010928100809112
:1029B000810082608093810080918100816080939A
:1029C00081008091800081608093800080919100DF
:1029D000826080939100809191008160809391004A
:1029E000809190008160809390008091C10084600C
:1029F0008093C1008091C10082608093C10080916A
:102A0000C10081608093C1008091C3008160809388
:102A1000C3008091C00082608093C0008091C2009A
:102A200081608093C20080917A00846080937A00F4
:102A300080917A00826080937A0080917A00816030
:102A400080937A0080917A00806880937A00109257
:102A5000FD011092EF011092FB018091D70081607F
:102A60008093D70080EA8093D80089B5806189BDC2
:102A700089B5826089BD09B400FEFDCF61E070E0D8
:102A800080E090E00E9420108091D8008F7C8061CF
:102A90008093D8008091E000807F8093E000809157
:102AA000E1008E7E8093E1008DE08093E200559AF4
:102AB000209A81EC80937C0085B1806F85B984B1C8
:102AC000877E84B984B1876E84B95E9A5F988AB133
:102AD000806D8AB9769A6E9881B3806F81BB899830
:102AE00080B38D7080BB80E58CBD81E08DBD85E0BD
:102AF00090E00E94C9095F9A85E090E00E94C909B0
:102B00005E985C98ECE7F1E089E891E024912EBDB5
:102B100000000DB407FEFDCF31968E179F07B1F769
:102B20005C9A81E880936400809165008160809365
:102B3000650082E196E00E94DE090E94CE0987FFCF
:102B400024C05C9885EA8EBD00000DB407FEFDCF61
:102B50005C9A2E982F982D988091640080628093C3
:102B6000640081E083BF889513BEFCCF2D980E943E
:102B7000CE098478843871F00E94CE098471843142
:102B800031F188EC90E00E94C9090E94CE0982FDD3
:102B9000EDCF3AC00E94C70988EC90E00E94C909B5
:102BA0002F9882E090E00E94BA1C8F3F29F06FEFCF
:102BB00082E090E00E94C21C84EF91E00E94C9096B
:102BC0002F9A0E94CE0984788438D9F3D5CF0E94F9
:102BD000C70988EC90E00E94C9092E9882E090E035
:102BE0000E94BA1C882329F060E082E090E00E94F5
:102BF000C21C84EF91E00E94C9092E9A0E94CE095E
:102C000084718431D9F3BDCF0E94C70982E090E07E
:102C10000E94D609882319F00E94D80904C0109296
:102C2000D0013E983F9881E090E00E94D609482F5D
:102C30004470D42E81FF84C041112E98C0EFDFEF85
:102C400008E010E00E94CE0986FF05C02E9A2F9A58
:102C50000E94C70975C0DD2029F0C430D10511F4E8
:102C60002E9A2F9881E00E9417129E01D7FF04C070
:102C7000222733272C1B3D0B27703327CE01D7FD8E
:102C80000796A3E095958795AA95E1F7D7FF05C02C
:102C90000197F801E21BF30B9F01AC015695542FED
:102CA00044275795479542505E4FA0E0B0E0480159
:102CB000821A930A8F3FFFEF9F074CF40196A85AA0
:102CC000BF4F40585F4FA03BB105A1F71EC07A012E
:102CD00064E9E60EF11C5A0160E070E08F3FEFEF0F
:102CE0009E0709F437C1FB01EA0FFB1FE453FF4FB6
:102CF000E491F0E03F01022E01C0660C0A94EAF76D
:102D0000F501C4886C28648A25C182E196E00E949E
:102D1000DE098FE090E00E94C9092196C931D105F2
:102D200009F090CFDD2011F02F9A2D9880E991E0E5
:102D30000E94C9090E94C7098EE096E00E94611BAB
:102D400082E390E00E94C9090E94CE098111F8CF68
:102D5000809164008E7F8093640080917A0080640B
:102D600080937A0080917A0086FDFCCFC091780034
:102D7000D09179000E94FB0F8E0120E030E0980195
:102D800011270027600F711F821F931F209164007D
:102D9000216020936400611571058105910511F092
:102DA0000E94B11C0E94D80984E080930D010E940A
:102DB0007C12E9E8F1E09491EAE8F1E0E491C92FAE
:102DC000D0E0209771F1EE2361F1C038D1050CF00D
:102DD00090E881E02E2F277009F480E0E695E695D3
:102DE000E6958E0F893008F088E06EEF71E020E004
:102DF0004BE851E08217A9F0DB01FA013E2F341BAA
:102E0000391748F4349127FD03C01C91312B3C93B2
:102E100031961196F3CF4C0F5D1F2F5F60587F4F97
:102E2000E9CF82E196E00E94DE0988EB9BE00E94F8
:102E3000C9090E94440C8FE1282E312C92E0892E82
:102E4000912CA12CB12C28E2422E512C66246394A3
:102E5000712C4AE0C42ED12C0BE010E055E1E52E98
:102E6000F12CC9E2D0E02FB7F8948091EB0190915A
:102E7000EC01A091ED01B091EE012FBF20911A0657
:102E8000382F321B20911B06222329F030931C0679
:102E900010921B0657C020911906321750F481E09A
:102EA000830F821708F04EC081E083BF889513BE60
:102EB00049C021E020931B0680931A0680911506D5
:102EC00090911606019690931606809315060E941F
:102ED000CE0986FD04C00E94CE0985FF6CC1809199
:102EE000DC018F5F8093DC010E94CE098472843202
:102EF00009F452C00E94CE098076803619F484E02D
:102F000080930D0180910D01853009F0A8C00E94C9
:102F1000CE0982FF4BC084E080930D0180910D01AA
:102F2000833009F4BBC208F03EC0813009F4A0C26E
:102F3000823009F098C38091DC01813009F046C1EC
:102F400080930D0180E090E0892B09F48CCF0E94E2
:102F5000000087CF2115310591F0FB01EA0FFB1F1F
:102F6000E453FF4FE491F0E03F01082C02C0759458
:102F700067940A94E2F7F701C0806C2860826F5F63
:102F80007F4FFFEFEF1AFF0AEFEFAE1ABE0A683568
:102F9000710509F0A3CE92CE80910D01845083304B
:102FA00008F00CC1A7CF853009F00CC10E947C123B
:102FB00080E290E090931E0680931D06709220069A
:102FC00060921F0686E591E00E947A12E0E1F0E04F
:102FD000F0931E06E0931D061093200600931F0633
:102FE00083E691E00E947A128EE290E090931E06B2
:102FF00080931D06F0922006E0921F0685E791E07F
:103000000E947A1284E390E090931E0680931D063E
:103010003092200620921F068CE791E00E947A12DF
:1030200040E150E050931E0640931D06D0932006C9
:10303000C0931F0683E691E00E947A1282E290E03C
:1030400090931E0680931D06E7E3F0E0F0932006C0
:10305000E0931F0681E891E00E947A12A7C08630B3
:1030600009F05CCF0E94CE0982FD55CF80911506F4
:103070009091160683709927892B09F428C20E9423
:103080007C1250921E0640921D067092200660929D
:103090001F068BE891E00E947A12D0921E06C09221
:1030A0001D061093200600931F0683E991E00E94FD
:1030B0007A1250921E0640921D06F0922006E0926F
:1030C0001F0683EA91E00E947A12D0921E06C092F7
:1030D0001D063092200620921F0683E991E00E948F
:1030E0007A1210921E0610921D06D0932006C093ED
:1030F0001F068BEA91E00E947A1246E250E050935C
:103100001E0640931D06D0932006C0931F0682EB37
:1031100091E00E947A1282E290E090931E068093E2
:103120001D06E7E3F0E0F0932006E0931F0681E838
:1031300091E00E947A12E09104018E2F90E0FC0150
:103140003197E830F10508F437C28091D901823017
:1031500009F463C2833009F467C2813041F42CE082
:1031600045E169E070E088E090E00E9426128091DD
:10317000D801823009F45FC2833009F463C2813020
:1031800041F42CE045E16DE170E088E090E00E94C0
:1031900026128091D701813009F05BC22CE04FE00C
:1031A00067E270E084E290E00E94261282E196E0FD
:1031B0000E94DE09C7CE1092DC0196CE83E0809398
:1031C0000D0198CE863009F451CF4DC20E94F60A07
:1031D0000E94CE0987FF08C080910C018150809326
:1031E0000C0181E080930B010E94CE0984FF08C08E
:1031F00080910C018F5F80930C018FEF80930B0106
:1032000080910C01811102C081E004C090E08D9793
:103210001CF08CE280930C010E94CE0982FF08C052
:1032200080910A01815080930A0181E08093090115
:103230000E94CE0983FF08C080910A018F5F8093AE
:103240000A018FEF8093090180910A01811102C068
:1032500081E004C090E08D971CF08CE280930A011D
:103260008091DB018823A1F10E94631CA5019401D8
:103270000E94D01C672B682B692B11F481E001C0E0
:103280008FEF8093D6010E94631CA50194010E94D8
:10329000D01C672B682B692B11F481E001C08FEFE4
:1032A0008093DA018091DB0191E089278093DB0133
:1032B00080E48093080180E28093070190930601E7
:1032C0000E94F60A60E971E080E090E00E94201020
:1032D00080910701823009F493C08E3309F490C0C5
:1032E0002091080130E04091D50150E0F90132977A
:1032F000BA01665F7F4F6E177F0794F1B901615085
:1033000071094617570764F590E020910C0130E0F1
:10331000BC0162507109A9014C5E5F4F4617570707
:1033200064F0AC01415051092417350734F462E0D0
:10333000809106010E94D20B0AC0A9014E5E5F4F28
:103340004817590724F002968217930784F72091B3
:10335000070130E0A9014250510980910C013DC0A4
:103360004091050150E0BA01685F7F4F6217730713
:103370000CF45BC0B9016E5F7F4F641775070CF4E6
:1033800045C090E020910A0130E0BC016250710913
:10339000A9014C5E5F4F461757076CF0AC014150D6
:1033A0005109241735073CF4809106016EEF819591
:1033B0000E94D20B0AC0A9014E5E5F4F4817590701
:1033C00024F00296821793077CF72091070130E0E2
:1033D000A9014250510980910A0190E0481759070C
:1033E00079F0BC016C5E7F4F4617570749F04C5F80
:1033F0005F4F8417950721F042962817390749F542
:103400008091DA0181958093DA0123C02230310561
:1034100064F48091D4018F3F11F41092D401809113
:10342000D4018F5F8093D4010EC02F3731058CF00B
:103430008091D3018F3F11F41092D3018091D30179
:103440008F5F8093D3019091DB0181E08927809386
:10345000DB01909108018091D601890F80930801CA
:10346000909107018091DA01890F809307016ACD5D
:103470008091DC01813019F482E080930D0182E3B8
:1034800090E090931E0680931D0640E250E050931A
:10349000200640931F068FE491E0DECD1092D30109
:1034A0001092D40181E08093DB0182E080930D01D2
:1034B0001092D2011092D1011092D50186E780932B
:1034C000050184E180930C0180930A013BCD0E94A9
:1034D000CE0985FF07C080910401823018F0815029
:1034E000809304010E94CE0986FF07C080910401E9
:1034F000883018F48F5F809304010E94CE0987FF03
:103500000EC08091040199EF980F923010F484E07E
:1035100004C08450833018F481E0809304010E9439
:10352000CE0984FF0BC080910401843010F484E044
:1035300003C0873018F487E0809304010E94CE090D
:1035400083FF9DCDE09104018E2F90E0FC01319727
:10355000E830F10508F093CDEA5AFF4F0C94331D83
:1035600083E08093030181E009C081E0809303013F
:1035700082E004C082E08093030183E08093D9015C
:103580007ECD83E08093020181E009C081E08093D9
:10359000020182E004C082E08093020183E0809314
:1035A000D8016DCD81E08093010103C0109201012B
:1035B00082E08093D70163CDE25AFF4F2CE00C9458
:1035C000331D45E169E070E00BC041E269E070E065
:1035D0000DC042E269E070E00FC045E16DE170E0CE
:1035E00088E090E017C041E26DE170E08FE190E08B
:1035F00011C042E26DE170E083E490E00BC04FE067
:1036000067E270E084E290E005C045E167E270E0C7
:1036100082E490E00E94261298CD2CE041E269E01D
:1036200070E08FE190E0A1CD2CE042E269E070E033
:1036300083E490E09ACD2CE041E26DE170E08FE10F
:1036400090E0A5CD2CE042E26DE170E083E490E0F3
:103650009ECD823009F0AACD2CE045E167E270E012
:1036600082E490E0A1CD0E94CE0983FF0DC080913D
:103670000001813021F0823021F486E003C083E034
:1036800001C085E080930D018091150680FD16C074
:103690000E94CE0985FF07C080910001823018F09A
:1036A0008150809300010E94CE0986FF07C080915F
:1036B0000001833018F48F5F809300010E94440C56
:1036C00041CC0F931F93CF93DF93EC0181E090E007
:1036D0000E94D60980FF2EC08AE090E00E94D609A1
:1036E0009FEF980F9E3F30F522E330E0388B2F8715
:1036F00028E330E03A8B298B0BE010E0E881F98178
:103700000190F081E02D682FCE010995C8010E943B
:10371000D6090F5F1F4F0131110581F7CE010496C5
:103720000E94DE0988EE93E0DF91CF911F910F9107
:103730000C94C909DF91CF911F910F9108950497BF
:103740000C94611BDF92EF92FF920F931F93CF9324
:10375000DF93D82EF92EE42E062F10E0C801019633
:10376000880F0E94B70C83E00E94B70CCD2DDF2D8F
:103770000C0F1D1FC017D10789F0E7FE03C0FE0123
:10378000849101C088810E94B70CF82E80E00E94CD
:10379000B70C8F2121968111EDCF01C081E0DF911F
:1037A000CF911F910F91FF90EF90DF900895E1E38B
:1037B000F6E01382128288EE93E0A0E0B0E084830A
:1037C0009583A683B7838DE291E0918380838FEF09
:1037D0009FEF95878487EEE0F6E0138212821186D0
:1037E000128680E183871086178215868FE391E029
:1037F000918380838DE491E095838483108A17867A
:10380000128A118A81E0838B148A858B168A8DE552
:1038100099E090930D0680930C0680E090E89093D9
:103820000B0680930A0646983E9A47983F9A089559
:103830008F929F92AF92BF92CF92DF92EF92FF92C0
:10384000CF93DF93EC01688179818A819B81611537
:1038500071058105910521F464E279ED8BE597E02E
:103860002DE133EF41E050E00E94D01C49015A01A4
:103870009B01AC01A7EAB1E40E94EF1C6B017C0143
:10388000ACEEB4EFA50194010E94FD1CDC01CB015C
:103890008C0D9D1DAE1DBF1DB7FF03C00197A10973
:1038A000B04888839983AA83BB83BC01CD019F77ED
:1038B000DF91CF91FF90EF90DF90CF90BF90AF90CE
:1038C0009F908F9008958F929F92AF92BF92CF92C8
:1038D000DF92EF92FF9260911A0170911B0180912B
:1038E0001C0190911D01611571058105910521F45F
:1038F00064E279ED8BE597E02DE133EF41E050E0B4
:103900000E94D01C49015A019B01AC01A7EAB1E415
:103910000E94EF1C6B017C01ACEEB4EFA501940199
:103920000E94FD1CDC01CB018C0D9D1DAE1DBF1D39
:10393000B7FF03C00197A109B04880931A01909383
:103940001B01A0931C01B0931D01BC01CD019F7709
:10395000FF90EF90DF90CF90BF90AF909F908F90AF
:10396000089560931A0170931B0180931C0190933A
:103970001D010895F999FECF92BD81BDF89A99274E
:1039800080B50895262FF999FECF1FBA92BD81BD4B
:1039900020BD0FB6F894FA9AF99A0FBE01960895D1
:1039A000052E97FB1EF400940E94E71C57FD07D0DC
:1039B0000E94021D07FC03D04EF40C94E71C5095A6
:1039C0004095309521953F4F4F4F5F4F089590950B
:1039D0008095709561957F4F8F4F9F4F08950E94FE
:1039E000241DA59F900DB49F900DA49F800D911D47
:1039F00011240895B7FF0C94EF1C0E94EF1C821B4A
:103A0000930B0895A1E21A2EAA1BBB1BFD010DC04A
:103A1000AA1FBB1FEE1FFF1FA217B307E407F5077E
:103A200020F0A21BB30BE40BF50B661F771F881F5A
:103A3000991F1A9469F760957095809590959B01F0
:103A4000AC01BD01CF010895A29FB001B39FC00199
:103A5000A39F700D811D1124911DB29F700D811DBA
:103A60001124911D0895EE0FFF1F0590F491E02D94
:103A7000099481E090E0F8940C943E1DF894FFCFF7
:103A80000101030301760120400114011402FFFF2C
:103A9000FFFF00E100000000000001000000000145
:103AA000000800C180810000000000000018119192
:103AB0001139112E119D0C3D115B1100000000FC0D
:103AC000096B0862096109611BFCFF00009F1B5024
:103AD000415553454400446576656C6F70656420BC
:103AE0004279005A61636861726961682046616C5D
:103AF000676F757400417274204279004C454E5ACC
:103B0000004220746F206578697400506164646CB1
:103B1000653100446F6720436F72676920446173A9
:103B2000636800506164646C653200536F756E6445
:103B30003A004F4E2020204F464600504C4159003D
:103B40004F5054494F4E530043524544495453003B
:00000001FF
