:100000000C9440060C9468060C9468060C946806E0
:100010000C9468060C9468060C9468060C946806A8
:100020000C9468060C9468060C9461100C94D31020
:100030000C9468060C9468060C9468060C94680688
:100040000C9468060C9468060C9468060C94680678
:100050000C9468060C9468060C9468060C94C60709
:100060000C9468060C9468060C9468060C94680658
:100070000C9468060C9468060C9468060C94680648
:100080000C9410080C9468060C9468060C9468068E
:100090000C9468060C9468060C9468060C94680628
:1000A0000C9468060C9468060C9468061A181F18BD
:1000B00024182B18301835183C184018B818BC18DC
:1000C000C018C418CA18D018D618DC18F0F89C8EBE
:1000D0008783878E9CF8F00000FEFF030303030371
:1000E000070EFCF80000FEFF0303030303070EFCEA
:1000F000F80000FFFF00000000000000FFFF00000C
:10010000FEFF8383838383C7EE7C380000F8FC0EF8
:1001100007030303070EFCF800003F7FE0C0808068
:10012000C0E07F3FFFFF01010101010101FFFF006E
:1001300000FFFF0C0C0C0C1C3E77E3C100007FFF9E
:10014000C0C0C0C0C0E0703F1F00001F3F70E0C0D3
:10015000C0C0E0703F1F00007FFFC1C1C1C1C1E34B
:10016000773E1C00001F3F70E0C0C0C0E0703F1F22
:10017000000000000001FFFF01000000D5F08D1419
:10018000A1C881CFD9F1AF2000000000000000001D
:1001900000000000000000000E0000000000000051
:1001A00000000000000000001E007C0000000000B5
:1001B00000000000000000003E01FE000000000002
:1001C0000000000000001F00FF03FC800000000092
:1001D000000000000001FFC3FE07F9C0000000009E
:1001E000000000000007FEA7FA07E3C000000000BF
:1001F00000000000003FFFFFF407CFE00000000018
:1002000000000000007FFFFFC4079FE00000000027
:100210000000000001FFFFFF50073FE14000000029
:10022000000000000FFFFFF2B0067FE0700000004A
:10023000000010007FFFFFF4E0025EC0180008001D
:1002400000003C00FFFFFFFF80000380000036C07D
:1002500000002601FFFFFFF00000C7000200FD4084
:100260000000271FFFFFFFF000007C000603016075
:10027000000037FFFFFFFFF0000000000304001044
:100280000003FFFFFFFFFFF000000000011C00184B
:100290000007FFBFFFFD7FF00000000001280008FD
:1002A000000CFFEFFFFEBFF00000000000A0000008
:1002B000001DFFBFFFFE5FE00000000000800000A7
:1002C000007E7FCFFFFFFBE0000000000000000287
:1002D00000FE7F67FFF0FDE000000000000000006E
:1002E000001E7F8FFF8007E000000000000000017B
:1002F000003FF81FFE0007E00000000000000000C3
:1003000000FFE3FFF80007C000000000000000004D
:10031000007FDFF3E0000DC00000000000000000DF
:10032000000017F780000D00000000000000000032
:10033000000017FC000000000000000000000000AA
:1003400000000000000000000000000000000000AD
:10035000000000000000000000000000000000009D
:1003600000000000000000000007FFE01FF0000098
:1003700000000000000000003C1FEBF07FFC3FC0CD
:10038000F9F83E07FF01FFF83C3FEBF0FFFE3FC0EE
:10039000FDFC7E7FFFC3FFFE3C3FBEF9FFFFBFC0F9
:1003A000FDFF7E7FFFF3FFFE3C3FA2F9FFFF9FC0F2
:1003B000FDFFFF7FFFF3FFFE3C3FE3F9F8C7DFF1EE
:1003C000FCFFFF7FFFF3FFFE3C3FE3F9F8C7CFFFE1
:1003D000FEFFFF7FFFF3FFFE3C3FFFF9FFFFCFFF74
:1003E000FEFFFF7FFFF3FFFE3C3FFFF9CC1CE7FF62
:1003F000FEFFFF3FF803FFC03C3FFFF3C804E7FFE9
:10040000FEFFFF3FF003FFC03C3FEBF9F807E7FFBB
:10041000FEFFFF3FF003FFFE3C3FAAFCF807E7FFAB
:10042000FEFFFFBFF003FFFE3C3FBEFEF807E7FF05
:10043000FEFFFFBFFC03FFFE3C3FE3FEFC07E7FFC0
:10044000FEFDFFBFFFFBFFC03C3FE3FE7E1FE7FF5B
:10045000FEFC7FBFFFFBFFC0003FE3FE7FFFCFFF3F
:10046000FCFC7FBFFFF3FFFE3C3FFFFE7FFFC7FFAB
:10047000F9FE3F9FFFC3FFFE3C3FFFF03FFFC3FF7E
:10048000F07C0F01FC00FFFE3C00000000000000BB
:10049000000000000000000000000000000000005C
:1004A000000000000000000000000000000000004C
:1004B000000000000000000000000000000000003C
:1004C000000000000000000000000000000000002C
:1004D000000000000000000000000000000000001C
:1004E000000000000000000000000000000000000C
:1004F00000000000000000000000000000000000FC
:1005000000000000000000000000000000000000EB
:1005100000000000000000000000000000000000DB
:1005200000000000000000000000000000000000CB
:1005300000000000000000000000000000000000BB
:1005400000000000000000000000000000000000AB
:10055000000000000000000000000000000000009B
:10056000000000000000000000000000000000008B
:10057000000000000000000000000000000000007B
:10058000000000000000000000A140EDC0EDC0ED43
:10059000C0FFC0FFC0FFC0FFC0FFC01E0061809E43
:1005A000403F006D806D80BF40BF40BF4092409E85
:1005B00040000000000000000000000000000000FB
:1005C0000000000000000000009E409240BF40BFBD
:1005D00040BF406D806D803F009E4061801E00FFE7
:1005E000C0FFC0FFC0FFC0FFC0EDC0EDC0EDC0A1A7
:1005F00040000000000000000000000000000000BB
:10060000000000000000000000A140E1C0EDC0FFBC
:10061000C0FFC0FFC0FFC0FFC0BF401E006D8040D4
:10062000803F007F805E805E80BF40B3409E408000
:10063000400000000000000000000000000000007A
:1006400000000000000000000080409E40B340BF5A
:10065000405E805E807F803F0040806D801E00BFD6
:1006600040FFC0FFC0FFC0FFC0FFC0EDC0E1C0A1A0
:10067000400000000000000000000000000000003A
:10068000000000000000000000A140E1C0EDC0ED4E
:10069000C0FFC0FFC0FFC0FFC0FFC0BF4040805EC2
:1006A00080FFC0EDC0FFC0F3C0A140CCC0E1C0A13D
:1006B00040000000000000000000000000000000FA
:1006C000000000000000000000A140E1C0CCC0A17B
:1006D00040F3C0FFC0EDC0FFC05E804080BF40FF60
:1006E000C0FFC0FFC0FFC0FFC0EDC0EDC0E1C0A1B2
:1006F00040000000000000000000000000000000BA
:10070000000000000000000000010204081020406A
:100710008000000000003E5B4F5B3E3E6B4F6B3E37
:100720001C3E7C3E1C183C7E3C181C577D571C1CF4
:100730005E7F5E1C00183C1800FFE7C3E7FF00184F
:10074000241800FFE7DBE7FF30483A060E26297938
:100750002926407F050507407F05253F5A3CE73C99
:100760005A7F3E1C1C08081C1C3E7F14227F22144A
:100770005F5F005F5F06097F017F006689956A60A1
:100780006060606094A2FFA29408047E04081020B8
:100790007E201008082A1C08081C2A08081E1010B1
:1007A00010100C1E0C1E0C30383E3830060E3E0E5B
:1007B00006000000000000005F00000007000700C6
:1007C000147F147F14242A7F2A12231308646236AC
:1007D000495620500008070300001C224100004138
:1007E000221C002A1C7F1C2A08083E080800807072
:1007F00030000808080808000060600020100804A5
:10080000023E5149453E00427F40007249494946F7
:100810002141494D331814127F1027454545393C75
:100820004A49493141211109073649494936464962
:1008300049291E0000140000004034000000081484
:1008400022411414141414004122140802015909FD
:10085000063E415D594E7C1211127C7F4949493652
:100860003E414141227F4141413E7F494949417FCB
:10087000090909013E414151737F0808087F004181
:100880007F41002040413F017F081422417F4040CA
:1008900040407F021C027F7F0408107F3E4141419F
:1008A0003E7F090909063E4151215E7F091929460B
:1008B000264949493203017F01033F4040403F1F21
:1008C0002040201F3F4038403F6314081463030456
:1008D0007804036159494D43007F414141020408B6
:1008E0001020004141417F04020102044040404089
:1008F00040000307080020545478407F28444438BF
:100900003844444428384444287F38545454180008
:10091000087E090218A4A49C787F08040478004487
:100920007D40002040403D007F1028440000417F72
:1009300040007C047804787C0804047838444444FB
:1009400038FC1824241818242418FC7C08040408F3
:10095000485454542404043F44243C4040207C1C0C
:100960002040201C3C4030403C44281028444C90FF
:1009700090907C4464544C44000836410000007759
:100980000000004136080002010204023C26232632
:100990003C1EA1A161123A4040207A385454555966
:1009A000215555794121545478412155547840209E
:1009B000545579400C1E52721239555555593954B7
:1009C00054545939555454580000457C410002454F
:1009D0007D420001457C40F0292429F0F02825289B
:1009E000F07C545545002054547C547C0A097F49BE
:1009F00032494949323248484832324A4848303A06
:100A00004141217A3A42402078009DA0A07D39449E
:100A10004444393D4040403D3C24FF2424487E4925
:100A200043662B2FFC2F2BFF0929F620C0887E0957
:100A30000320545479410000447D413048484A32F3
:100A4000384040227A007A0A0A727D0D19317D26DB
:100A500029292F28262929292630484D40203808C1
:100A600008080808080808382F10C8ACBA2F102842
:100A700034FA00007B000008142A142222142A14DD
:100A8000089500220095AA005500AAAA55AA55AAC1
:100A9000000000FF00101010FF00141414FF0010DD
:100AA00010FF00FF1010F010F0141414FC001414C8
:100AB000F700FF0000FF00FF1414F404FC141417E7
:100AC000101F10101F101F1414141F00101010F00E
:100AD000000000001F101010101F10101010F01058
:100AE000000000FF101010101010101010FF100068
:100AF0000000FF140000FF00FF00001F101700009F
:100B0000FC04F414141710171414F404F40000FF78
:100B100000F714141414141414F700F71414141711
:100B20001410101F101F141414F4141010F010F0EF
:100B300000001F101F0000001F14000000FC140024
:100B400000F010F01010FF10FF141414FF14101018
:100B5000101F00000000F010FFFFFFFFFFF0F0F09B
:100B6000F0F0FFFFFF0000000000FFFF0F0F0F0F6E
:100B70000F38444438447C2A2A3E147E020206067A
:100B8000027E027E0263554941633844443C04407E
:100B90007E201E2006027E020299A5E7A5991C2A46
:100BA000492A1C4C7201724C304A4D4D3030487805
:100BB0004830BC625A463D3E494949007E01010128
:100BC0007E2A2A2A2A2A44445F444440514A444007
:100BD00040444A51400000FF0103E080FF0000084C
:100BE000086B6B083612362436060F090F06000014
:100BF00018180000001010003040FF0101001F0114
:100C0000011E00191D1712003C3C3C3C0000000076
:100C100000080B00020202010009040000010202A8
:100C2000000005240010010524010101042402062E
:100C30000524060001070581031000400904010096
:100C4000020A0000000705020240000007058302B7
:100C50004000000403090412010002EF02014041B8
:100C600023368000010102030141726475696E6FD1
:100C7000204C4C430041726475626F790000B219D8
:100C800011241FBECFEFDAE0DEBFCDBF11E0A0E040
:100C9000B1E0ECE2F6E302C005900D92A03DB10791
:100CA000D9F726E0A0EDB1E001C01D92A838B20747
:100CB000E1F716E0C0E4D6E004C02197FE010E94EF
:100CC000091BCF33D107C9F70E9403130C94141BDF
:100CD0000C940000CF92DF92EF92FF920F931F933C
:100CE000CF93DF936C017A018B01C0E0D0E0CE1589
:100CF000DF0589F0D8016D918D01D601ED91FC9150
:100D00000190F081E02DC6010995892B11F47E0137
:100D100002C02196ECCFC701DF91CF911F910F91B7
:100D2000FF90EF90DF90CF9008958091E801E091DF
:100D3000E601F091E701882349F0CF0102969093F4
:100D4000E7018093E601859194910895CF01029681
:100D50009093E7018093E601808191810895CF927D
:100D6000DF92EF92FF920F931F93CF93DF930E9436
:100D70009506811520E8920761F4809171008D7FBE
:100D80008093710010929100469847981092E50167
:100D90008BC021E02093E501813020E8920751F4D7
:100DA0008091E3019091E4019093E7018093E60143
:100DB0000E94950697FD05C02091E201222309F4C7
:100DC0003FC02091E10121113BC021E02093E901C6
:100DD000EC01DF77209769F481E08093EA0146987F
:100DE0003FE9C32E3FE0D32EE12CF12CCAEFD0E037
:100DF00014C08E0120E030E060E472E48FE090E007
:100E0000A90198010E94A61A69017A0181E0C81A15
:100E1000D108E108F1081092EA01E0910606F0918C
:100E200007060995811103C081E08093EA01809152
:100E3000E9018823B9F18091EA01811133C003C02F
:100E40001092E901C5CF46992DC0479A0E94950698
:100E5000009771F09C01DE010E94FA1ADC01CB01BF
:100E600029E0B595A795979587952A95D1F703C061
:100E70008FEF9FEFDC01109290002AE02093910009
:100E8000D0929900C09298008093EB019093EC016E
:100E9000A093ED01B093EE01809171008260809388
:100EA000710002C04798D2CFDF91CF911F910F916F
:100EB000FF90EF90DF90CF9008958091D00108953A
:100EC0000895089580E090E008950E940F1B3FB7B9
:100ED000F8948091F0019091F101A091F201B0910C
:100EE000F30126B5A89B05C02F3F19F00196A11D5F
:100EF000B11D3FBFBA2FA92F982F8827820F911DB0
:100F0000A11DB11DBC01CD0142E0660F771F881FF6
:100F1000991F4A95D1F708958F929F92AF92BF92F1
:100F2000CF92DF92EF92FF926B017C010E946707E4
:100F30004B015C01C114D104E104F104F1F00E9401
:100F40006707DC01CB0188199909AA09BB09883E0A
:100F50009340A105B10570F321E0C21AD108E10860
:100F6000F10888EE880E83E0981EA11CB11CC11404
:100F7000D104E104F10419F7DDCFFF90EF90DF9089
:100F8000CF90BF90AF909F908F9008951F920F9237
:100F90000FB60F9211242F933F938F939F93AF938C
:100FA000BF938091D1019091D201A091D301B091D2
:100FB000D4013091EF0123E0230F2D3720F4019667
:100FC000A11DB11D05C026E8230F0296A11DB11D6C
:100FD0002093EF018093D1019093D201A093D3018C
:100FE000B093D4018091F0019091F101A091F201B0
:100FF000B091F3010196A11DB11D8093F001909372
:10100000F101A093F201B093F301BF91AF919F91D1
:101010008F913F912F910F900FBE0F901F901895B9
:101020001F920F920FB60F9211242F933F934F935D
:101030005F936F937F938F939F93AF93BF93EF9340
:10104000FF938091EB019091EC01A091ED01B091A3
:10105000EE01892B8A2B8B2B81F18091EA01811182
:101060000BC098B180E4892788B98091E901882371
:1010700019F088B1805888B98091EB019091EC010A
:10108000A091ED01B091EE01181619061A061B0683
:10109000B4F48091EB019091EC01A091ED01B0913D
:1010A000EE010197A109B1098093EB019093EC0146
:1010B000A093ED01B093EE0102C00E94AF06FF9134
:1010C000EF91BF91AF919F918F917F916F915F91C0
:1010D0004F913F912F910F900FBE0F901F90189539
:1010E0002D9A0895BC0180E090E00C948C078FB19C
:1010F0002CB193B130E02095309520743327A901AD
:1011000023E0559547952A95E1F7292F30E0209562
:101110003095207133273595279535952795242BC4
:101120008095807F822B089583B7817F83BF83B7AB
:10113000816083BF889583B78E7F83BF08958EBDFE
:1011400000000DB407FEFDCF08953E9A3F9A81E05E
:101150008093D00108958091F8018EBDE9EFF1E010
:1011600081910DB407FEFDCF8EBD85E0E83FF80705
:10117000B9F70DB407FEFDCF089560387105D0F4BE
:1011800040345105B8F4E9E0F7E080E1849FD001F4
:10119000A0781124A60F4770E40FF11D8491A85088
:1011A000BE4F222319F06C91862B03C080956C9161
:1011B00086238C9308952F923F924F925F926F9265
:1011C0007F928F929F92AF92BF92CF92DF92EF92D7
:1011D000FF920F931F93CF93DF93CDB7DEB729977D
:1011E0000FB6F894DEBF0FBECDBFFC016A3069F4C4
:1011F000248D808D918D38E0239F800D911D1124C9
:10120000918F808F178A168AAAC06D3009F4A7C003
:1012100099878887F48C338C228C608C718C06893A
:10122000178900381105C4F0A885B9855C962C9102
:101230005C97422F50E056968D919C915797B6E05F
:101240002B9F800D911D1124E885F985978B868B46
:10125000258D21116EC083C0F0E46F16710424F750
:10126000C80125E0F29E800D911D11241816190663
:10127000DCF68F2D90E09C838B83C301A8E0FA9E5F
:10128000800D911D11241816190674F6B5E06B9F98
:10129000B0011124FB01EF5EF84FFA83E98330E0DF
:1012A0008885998504969E838D83E981FA81E490EF
:1012B000353009F4E12C430188E0482EE0FC02C0FF
:1012C000532C01C0522C51100BC0321009C0E694AF
:1012D0004A948B819C81880E991E4110EFCF1BC0D0
:1012E00068018C2D801B8F1590F754018A2D881969
:1012F0008F1568F4252DA501B6018D819E813F8350
:101300000E94BD089FEFA91AB90A3F81EFCFAFEF46
:10131000CA1ADA0AE6CF3F5FEB81FC810E0F1F1F6E
:1013200089819A8101969A838983363009F0BDCFED
:101330007BCF6AEF64039001659F300D1124205824
:101340003F4F281739075CF4A885B985ED91FC91CA
:1013500011970190F081E02D6AE0CD01099581E0BF
:1013600090E029960FB6F894DEBF0FBECDBFDF9197
:10137000CF911F910F91FF90EF90DF90CF90BF9092
:10138000AF909F908F907F906F905F904F903F9025
:101390002F9008950F93CF93DF930E94550D1092D5
:1013A00021061092200610921F0610921E0620E0C1
:1013B00030E040E850E060E070E080E090E00E94C3
:1013C0001A0F2FE330E040E850E06FE370E080E078
:1013D00090E00E941A0F2FE330E040E450E060E01C
:1013E00070E080E490E00E941A0F43E260E270E057
:1013F00080E490E00E94380E8CE190E090931F060C
:1014000080931E06C3E0D0E0D0932106C09320064F
:101410006091D70170E080E090E04AE00E94F70D13
:1014200080E690E090931F0680931E06D0932106DD
:10143000C09320066091D80170E080E090E04AE01F
:101440000E94F70D80910301823039F1833019F049
:101450008130B1F511C090910B0160910C01809128
:10146000D90170E004E12AE0913019F449EC56E02A
:1014700024C049E856E021C090910B0160910C0115
:101480008091D90170E004E12AE0913019F449E437
:1014900056E013C049E056E010C090910B016091F6
:1014A0000C018091D90170E004E12AE0913019F437
:1014B00049EC55E002C049E855E090E00E94620D19
:1014C00080910201823039F1833019F08130B1F519
:1014D00011C09091090160910A018091050170E0AD
:1014E00004E12AE0913019F449EC56E024C049E8BF
:1014F00056E021C09091090160910A018091050197
:1015000070E004E12AE0913019F449E456E013C098
:1015100049E056E010C09091090160910A01809164
:10152000050170E004E12AE0913019F449EC55E03E
:1015300002C049E855E090E00E94620D6091070109
:1015400070E08091080142E090E00E94380E8CE04B
:1015500096E0DF91CF910F910C94AB08CF92DF9280
:10156000EF92FF920F931F93CF93DF932091D501BA
:101570003091D60123703327232B29F49091060153
:101580009F5F9093060190910601953018F094E0CA
:10159000909306018093DA0180910801680F6093AF
:1015A0000801C0E0D0E008EF15E094E1E92EF12C4D
:1015B000C12C20E8D22E80910101882379F1FE010F
:1015C000EE0FFF1FE25EFE4F20813181809171009E
:1015D0008D7F809371001092E8011093E7010093D2
:1015E000E6011093E4010093E3013093F9052093A1
:1015F000F805F092FB05E092FA05D092FD05C09245
:10160000FC050E94AF06CD2B49F46EE170E080E04E
:1016100090E00E948C07C1E0D0E0CDCF8091D50151
:101620009091D60101969093D6018093D501DF91D8
:10163000CF911F910F91FF90EF90DF90CF90089581
:101640000F93CF93DF930E94550D109221061092B5
:10165000200610921F0610921E0600E420E849E8BA
:1016600051E060E070E080E090E00E94620D84E074
:1016700090E090931F0680931E06C7E3D0E0D093BE
:101680002106C09320068BEB91E00E94530D80E26F
:1016900090E090931F0680931E06D0932106C0937E
:1016A000200680EC91E00E94530D8EE490E0909330
:1016B0001F0680931E06D0932106C093200688EC57
:1016C00091E00E94530D809100012BE0813031F4B4
:1016D0004CE165E370E082E090E00AC04DE265E332
:1016E00070E0823019F48EE190E002C08CE490E06A
:1016F0000E94EF0C8CE096E0DF91CF910F910C945B
:10170000AB089C01240F311D1216130674F58038A6
:1017100091055CF5FC0197FF02C0E0E0F0E02138A4
:10172000310514F020E830E02E1BAB01477055273F
:1017300081E001C0880F4A95EAF777FF02C0695F30
:101740007F4F93E0759567959A95E1F77695762F9B
:10175000662777956795E60FF71FE850FE4F2150F3
:1017600020F09081982B9193FACF0895FC018091FD
:10177000F701811103C08FEF9FEF08959FB7F89491
:1017800082E08093E9002091F20030E01216130607
:1017900014F421E030E02115310559F0289884E651
:1017A0008093F6018091F10080838091F20088237C
:1017B00019F09FBFC90108958BE68093E800F9CF27
:1017C0002FB7F89483E08093E9009091E800892F87
:1017D000807295FF04C09091F20080E4891B2FBFB6
:1017E0000895CF93DF931F92CDB7DEB76983DC01F5
:1017F000ED91FC910280F381E02D41E050E0BE01CB
:101800006F5F7F4F09950F90DF91CF91089583E02F
:101810008093E9008091F200882319F08AE3809395
:10182000E80008950E94E00B90E00895CF93DF93C5
:101830001F92CDB7DEB7FC018485958597FD05C065
:101840002FEF3FEF358724870BC0CE0101960E9412
:10185000B60B019719F4898190E002C08FEF9FEFDA
:101860000F90DF91CF9108950F931F93CF93DF9344
:101870001F92CDB7DEB78C01FC018485958597FF5B
:101880000EC0CE0101960E94B60B019719F4298172
:1018900030E002C02FEF3FEFF80135872487F801D1
:1018A000848595850F90DF91CF911F910F910895B9
:1018B000009769F0FC0101900020E9F73197AF0132
:1018C000481B590BBC0188E096E00C946A0680E046
:1018D00090E008958F929F92AF92BF92CF92DF9245
:1018E000EF92FF920F931F93CF93DF935C016B01F5
:1018F0007A0180911501882309F45BC08091F7017A
:10190000882309F456C08091F50180FF05C08091BD
:10191000E00082608093E000E70110E00AEF83E0DE
:10192000882E9AE3992E2097D9F10E94E00B81111D
:101930000AC0015009F43DC061E070E080E090E031
:101940000E948C07F0CF282F30E0C217D3070CF489
:101950008C2F4FB7F8948092E9009091E80095FFA2
:101960001DC0282F30E0C21BD30BF601982F9150D9
:1019700020F081918093F100FACFC20ED31E112383
:1019800019F09092E80009C08091E80085FD06C03A
:101990009092E80011E0209709F010E04FBFC3CF0C
:1019A0001111C3CF5D9884E68093F4011E141F04C7
:1019B00044F081E090E0F5019383828380E090E041
:1019C00001C0C701DF91CF911F910F91FF90EF9060
:1019D000DF90CF90BF90AF909F908F9008956F92BF
:1019E0007F929F92AF92BF92CF92DF92EF92FF923F
:1019F0000F931F93CF93DF931F92CDB7DEB78C0168
:101A00003B01942E6034710528F4C80129830E949B
:101A1000810B29815301A20EB11CB50161507109DE
:101A20006034710520F4492DC8010E94810B77FEB6
:101A300002C0612C712C7301650181E4A816B10408
:101A40001CF080E4C82ED12CEC14FD045CF421E0E1
:101A5000A701B8018CE096E00E94BD088FEFE81A5C
:101A6000F80AEACF090D111D015011096C147D040B
:101A70005CF421E0A301B8018CE096E00E94BD086F
:101A80008FEF681A780AF2CF0F90DF91CF911F91F4
:101A90000F91FF90EF90DF90CF90BF90AF909F900D
:101AA0007F906F9008950C94580C80E0E8EFF1E07F
:101AB00081118FEF0024819381938193819303940B
:101AC000D1F708952F923F924F925F926F927F923B
:101AD0008F929F92AF92BF92CF92DF92EF92FF923E
:101AE0000F931F93CF93DF9300D000D0CDB7DEB715
:101AF000E22EF12C9C012E0D3F1D37FD61C0803878
:101B000091050CF05DC010E09B01200F311F37FDE7
:101B100057C0603471050CF053C03A012B011C0111
:101B2000C70107969C0193E0359527959A95E1F7B3
:101B30003A832983A12CB12CC12CD12CC016D106FB
:101B40000CF03EC01C821B824601840C951CEB816C
:101B5000FC81EE15FF0564F5EB81FC8183E0F595D2
:101B6000E7958A95E1F7EA0DFB1DE60DF71DE49177
:101B7000F0E08B819C818770992720E830E002C0DB
:101B8000359527958A95E2F7E223F323EF2B51F061
:101B900021E0A4016B817C81620D731D8CE096E0D5
:101BA0000E94BD088B819C8101969C838B83CFCF43
:101BB000FFEFCF1ADF0A29813A81A20EB31EBECFF2
:101BC0000F900F900F900F90DF91CF911F910F9179
:101BD000FF90EF90DF90CF90BF90AF909F908F904D
:101BE0007F906F905F904F903F902F9008958F92CD
:101BF0009F92AF92BF920F931F93CF93DF93CDB776
:101C0000DEB7A1970FB6F894DEBF0FBECDBF19A205
:101C1000423008F44AE08E010F5D1F4F842E912C54
:101C2000A12CB12CA50194010E94D81AE62FB9016C
:101C3000CA0101501109EA3014F4E05D01C0E95C09
:101C4000D801EC93232B242B252B61F7C8010E948C
:101C5000580CA1960FB6F894DEBF0FBECDBFDF9132
:101C6000CF911F910F91BF90AF909F908F9008954B
:101C70002F923F924F925F926F927F928F929F929C
:101C8000AF92BF92CF92DF92EF92FF920F931F938A
:101C9000CF93DF9300D000D0CDB7DEB78C017B01AE
:101CA000242F30E03C832B8381E090E05C01A21A7A
:101CB000B30AC9019195819591091C01220C331C2D
:101CC000A901460F571F21E0B8018CE096E00E9461
:101CD000BD08A7018B819C81481B590B21E0B801ED
:101CE0008CE096E00E94BD086B817C81600F711FC3
:101CF00021E0A7018CE096E00E94BD08B801EB81CD
:101D0000FC816E1B7F0B21E0A7018CE096E00E9416
:101D1000BD08C12CD12C21E030E03A8329832B81EE
:101D20003C81C216D3060CF06EC0B7FC0AC08B8192
:101D30009C8101979C838B8392E0290E311CA20C1D
:101D4000B31CEFEFCE1ADE0A29813A812E5F3F4F96
:101D50003A832983A20EB31E3601600E711E21E064
:101D60008B809C808E0C9F1CA401B3018CE096E0BC
:101D70000E94BD0828014C185D0821E0A401B201B1
:101D80008CE096E00E94BD0821E047018B819C8198
:101D9000881A990AA401B3018CE096E00E94BD085C
:101DA00021E0A401B2018CE096E00E94BD0846014A
:101DB0008E0C9F1C21E0A4016B807C80600E711E44
:101DC000B3018CE096E00E94BD0821E0A401280147
:101DD000EB81FC814E1A5F0AB2018CE096E00E9412
:101DE000BD0847018C189D0821E0A401B3018CE0D7
:101DF00096E00E94BD0821E0A401B2018CE096E0CB
:101E00000E94BD088CCF0F900F900F900F90DF9124
:101E1000CF911F910F91FF90EF90DF90CF90BF90E7
:101E2000AF909F908F907F906F905F904F903F907A
:101E30002F9008955F926F927F928F929F92AF92B0
:101E4000BF92CF92DF92EF92FF920F931F93CF93A7
:101E5000DF93EC018B017A01A901461B570B57FF59
:101E600003C0519541955109C7018C1B9D0B97FFEC
:101E700003C0919581959109552453948417950732
:101E800014F0512C0AC09E2D8F2D7901292F382F47
:101E90009C2F8D2FE801092F182FEC16FD0654F406
:101EA000902F812F8901292F382F9C2F8D2FE7010B
:101EB000E92EF82E37016C1A7D0A5901A01AB10AD1
:101EC000B7FE03C0B194A194B108630177FE03C0CB
:101ED0008FEFC81AD80AD594C7940217130714F0C5
:101EE0008FEF01C081E0882E880F9908EC16FD065F
:101EF000B4F021E0552019F0AE01B80102C0A801EC
:101F0000BE018CE096E00E94BD08CA18DB08D7FE2F
:101F100004C0080D191DC60CD71C2196E7CFDF9110
:101F2000CF911F910F91FF90EF90DF90CF90BF90D6
:101F3000AF909F908F907F906F905F900895809169
:101F40002A0681110DC082E08093260684E08093EA
:101F50002706109229061092280681E080932A060F
:101F600086E296E00895FC018485958597FD0BC077
:101F70009FB7F89482E08093E9008091F2009FBFC0
:101F800090E0019608959FB7F89482E08093E9006D
:101F90008091F2009FBF90E0089540918606509195
:101FA0008706209184063091850642175307B4F4C2
:101FB0009091E8009570E1F39091E80092FD19C0CE
:101FC0008093F100809186069091870601968F7329
:101FD0009927892B19F48EEF8093E800809186066B
:101FE000909187060196909387068093860681E0FC
:101FF000089580E00895DF92EF92FF920F931F9370
:10200000CF93DF93D82E8A017B01E40EF51EEB01FE
:10201000CE15DF0571F0D7FE03C0FE01849101C02B
:1020200088810E94CD0F21968111F2CF8FEF9FEF13
:1020300001C0C801DF91CF911F910F91FF90EF90E8
:10204000DF900895615030F02091F100FC01208371
:102050000196F8CF289884E68093F60108950F93AF
:102060001F93CF93DF931F92CDB7DEB782E08983B2
:1020700042E450E061E17CE080E80E94FB0F0E94B6
:102080009F0FDC0112960D911C91139701151105FC
:1020900069F0D801ED91FC910280F381E02DBE0141
:1020A0006F5F7F4FC801099597FF07C089810F9027
:1020B000DF91CF911F910F910895F801008511854F
:1020C000E5CF1F920F920FB60F9211248F939F931B
:1020D0008091E1009091E100937F9093E10083FF74
:1020E0000FC01092E90091E09093EB001092EC0089
:1020F00092E39093ED001092F70198E09093F00036
:1021000082FF20C093E09093E9009091F200992320
:1021100019F09AE39093E8009091F401992339F033
:102120009091F40191509093F401992389F1909149
:10213000F601992339F09091F60191509093F601B0
:10214000992341F184FF10C08091E2008E7E81606E
:102150008093E2008091E1008F7E8093E100809186
:10216000F5018E7E806111C080FF16C08091E20073
:102170008E7E80618093E2008091E1008E7E80936C
:10218000E1008091F5018E7E81608093F50104C0AD
:102190005D9ACDCF289AD6CF9F918F910F900FBE89
:1021A0000F901F9018951F920F920FB60F92112447
:1021B000CF92DF92EF92FF920F931F932F933F9353
:1021C0004F935F936F937F938F939F93AF93BF933F
:1021D000EF93FF93CF93DF93CDB7DEB76C97DEBF5E
:1021E000CDBF1092E9008091E80083FFEDC168E067
:1021F000CE0145960E94221082EF8093E8008D89DF
:1022000087FF05C09091E80090FFFCCF03C09EEFD0
:102210009093E800982F907609F0C6C09E892F8988
:10222000188D91110CC0803829F480918306809319
:10223000F10002C01092F1001092F10048C1422F4B
:1022400050E0512B913051F4811141C14130510581
:1022500009F03DC1809183068D7F0BC0933061F4FE
:10226000811135C14130510509F031C1809183069A
:102270008260809383062BC1953041F48091E80001
:1022800080FFFCCF20682093E30021C1963009F045
:102290005FC0EB8CFC8C1092E900109287061092C4
:1022A0008606123091F510928506109284060E94DF
:1022B0002F1099E0BE016F5F7F4FDB01E92F1D9268
:1022C000EA95E9F799831A8391E09E8390EA9887CB
:1022D0009AEF99872091860630918706275F3F4FB6
:1022E0003C832B838D831092E90010928706109215
:1022F0008606F0928506E092840649E050E080E090
:102300000E94FB0F0E942F10E2C0F0928506E0921F
:1023100084060E949F0FDC011296ED90FC901397AB
:10232000E114F10409F4C0C0D701ED91FC910480DF
:10233000F581E02DBE016B5E7F4FC70109950097C7
:1023400019F00CF0C4C0C7C0F701E084F184E8CFF5
:10235000973009F4C0C0983021F481E08093F100F7
:10236000B6C0993009F0B3C0837009F0B4C0E9E495
:10237000F1E081E021E036E39081992361F08093E0
:10238000E9002093EB0091919093EC003093ED00E5
:102390008F5F873089F78EE78093EA001092EA001A
:1023A0008F898093F70193C08B8D9C8D1092E900EB
:1023B0001092870610928606909385068093840675
:1023C000898D811156C08E899D89913A59F4813247
:1023D00009F081C047E050E06EE071E080E00E94CB
:1023E000FB0F75C0913209F076C0833289F4888D75
:1023F00090E0982F88272F89822BA0E0B0E080936F
:10240000160190931701A0931801B09319015FC0B2
:10241000803269F48091E80082FFFCCF67E08EE0B3
:1024200091E00E9422108BEF8093E80006C0823278
:1024300009F04DC08F898093150180918206882311
:1024400019F0EEEFFAE002C0E0E0F8E080910E0152
:1024500090910F01A0911001B0911101803B944027
:10246000A105B10509F07BC08091150180FF93C0E3
:1024700076C00E949F0FDC0112960D911C9113975C
:102480000115110541F1D801ED91FC910190F08108
:10249000E02DBE016B5E7F4FC8010995811117C009
:1024A000F80100851185ECCF113009F44EC01330CE
:1024B00091F48F89882309F445C0823081F440E883
:1024C00067E085E79CE00E94F719882321F08EEFF2
:1024D0008093E80079C081E28093EB0075C0813081
:1024E00029F440E86BE089E69CE0EDCF833099F772
:1024F0000E949F0FDC011296ED90FC9013978E01C5
:102500000F5F1F4F6801E114F10479F0D701ED91DD
:10251000FC910680F781E02DB801C7010995080FED
:10252000111DF701E084F184EECFD8011C92F60171
:1025300001900020E9F73197BF016C197D0940E057
:10254000C601C1CF63E57CE002C067E57CE06115B0
:10255000710509F2FB01449150E080E840CF0FB6CD
:10256000F894A89580916000886180936000109233
:1025700060000FBEA895EE3F2AE0F20739F0809187
:10258000FE0A9091FF0A91838083A1CF1092FF0AE7
:102590001092FE0A9CCFEE3F8AE0F80731F080816E
:1025A00091819093FF0A8093FE0A87E797E79183D2
:1025B00080839BE088E10FB6F894A8958093600033
:1025C0000FBE9093600083CF6C960FB6F894DEBF79
:1025D0000FBECDBFDF91CF91FF91EF91BF91AF9132
:1025E0009F918F917F916F915F914F913F912F912B
:1025F0001F910F91FF90EF90DF90CF900F900FBE43
:102600000F901F901895789484B5826084BD84B52E
:10261000816084BD85B5826085BD85B5816085BDDD
:1026200080916E00816080936E0010928100809195
:10263000810082608093810080918100816080931D
:102640008100809180008160809380008091910062
:1026500082608093910080919100816080939100CD
:10266000809190008160809390008091C10084608F
:102670008093C1008091C10082608093C1008091ED
:10268000C10081608093C1008091C300816080930C
:10269000C3008091C00082608093C0008091C2001E
:1026A00081608093C20080917A00846080937A0078
:1026B00080917A00826080937A0080917A008160B4
:1026C00080937A0080917A00806880937A001092DB
:1026D000F701109283061092F5018091D700816076
:1026E0008093D70080EA8093D80089B5806189BD46
:1026F00089B5826089BD09B400FEFDCF61E070E05C
:1027000080E090E00E948C078091D8008F7C8061EF
:102710008093D8008091E000807F8093E0008091DA
:10272000E1008E7E8093E1008DE08093E200559A77
:10273000209AEEEFFFE7859194918B3F9C4D19F421
:1027400081E08093820681EC80937C0085B1806F6C
:1027500085B9249884B1866E84B95E9A5F988AB1EF
:10276000806D8AB9769A6E9881B3806F81BB8998A3
:1027700080B38D7080BB80E58CBD81E08DBD85E030
:1027800090E00E9472085F9A85E090E00E947208D3
:102790005E985C98CCE7D1E01C2F135FFE0184911A
:1027A0000E949F0821961C13F9CF5C9A81E88093C0
:1027B000640081E080936500C0E0D4E080E00E9486
:1027C0009F082197D9F70E94770887FF1FC05C9860
:1027D00085EA0E949F085C9A2E982F982D988091E8
:1027E00064008062809364000E949408FDCF2D985D
:1027F0000E9477088478843871F00E947708847189
:10280000843131F188EC90E00E9472080E947708D0
:1028100082FDEDCF3AC00E94700888EC90E00E94E3
:1028200072082F9882E090E00E94901A8F3F29F062
:102830006FEF82E090E00E94981A84EF91E00E948E
:1028400072082F9A0E94770884788438D9F3D5CFFC
:102850000E94700888EC90E00E9472082E9882E036
:1028600090E00E94901A882329F060E082E090E0D6
:102870000E94981A84EF91E00E9472082E9A0E949A
:10288000770884718431D9F3BDCF0E94700882E04B
:1028900090E00E94901A882319F00E94A50804C0B5
:1028A0001092D0013E983F982E98CEEEDFEF08E0D0
:1028B00010E00E94770886FF04C02E9A2F9A2D9A66
:1028C0008DC0CC3F2FEFD20719F42E9A2F9805C058
:1028D000C831D10511F42F9A2D980E94550DC03F93
:1028E0004FEFD40794F48CE096E00E94AB088BE1A4
:1028F00090E00E947208C03F5FEFD50709F059C011
:102900008AEF90E00E94720854C09E01D7FF04C075
:10291000222733272C1B3D0B27703327CE01D7FDF1
:102920000796A3E095958795AA95E1F7D7FF05C08F
:102930000197B801621B730B9B017C01F694FE2C7E
:10294000EE24F794E79440E050E04801821A930A9D
:10295000F701E058FF4F5F018F3FFFEF9F0744F4FF
:102960000196485A5F4F7501403B510589F7BBCF2F
:10297000D701A457BD4F60E070E08F3FEFEF9E0797
:1029800009F403C1FB01E40FF51FE453FF4FE49189
:102990006D01CA18DB08CE0CDF1CF0E02F01022EFF
:1029A00001C0440C0A94EAF7F6017080472840827F
:1029B000ECC02196C931D10509F07BCF8CEB92E0B8
:1029C0000E9472080E947008E0910C06F0910D06BA
:1029D0000190F081E02D8CE096E0099582E390E093
:1029E0000E9472080E9477088111F8CF80916400DC
:1029F0008E7F8093640080917A00806480937A0057
:102A000080917A0086FDFCCFC0917800D09179004A
:102A10000E9467078E0120E030E09801112700270F
:102A2000600F711F821F931F61157105810591054C
:102A300011F00E94871A8091640081608093640085
:102A40000E94A50884E080930D010E94200B95E16F
:102A5000292E312C22E0822E912CA12CB12C30E297
:102A6000432E512CCC24C394D12C00E110E05BE028
:102A7000E52EF12CC9E2D0E02FB7F8948091D10176
:102A80009091D201A091D301B091D4012FBF409178
:102A900018065091190660911A0670911B06209134
:102AA0001C06222341F020911406821B80931D06F0
:102AB00010921C0662C084179507A607B70738F462
:102AC000481B423008F459C00E94940856C021E0C7
:102AD00020931C068093140690931506A093160667
:102AE000B093170620911306820F911DA11DB11DF1
:102AF0008093180690931906A0931A06B0931B06AC
:102B000080910F0690911006019690931006809385
:102B10000F060E94770886FD04C00E94770885FF93
:102B2000D6C38091E0018F5F8093E0010E94770817
:102B30008472843209F444C00E947708807680361B
:102B400019F484E080930D0180910D01855082304D
:102B500008F43DC080910D01833009F4ACC108F048
:102B60003DC0813009F493C1823009F082C3809165
:102B7000E0018130D1F580930D0180E090E0892B58
:102B800009F47ACF0E94000075CF2115310581F03C
:102B9000FB01E40FF51FE453FF4FE491F0E0082C34
:102BA00002C0F595E7950A94E2F7DC90ED29EC93E5
:102BB0006F5F7F4F11966835710509F0DECED0CE7C
:102BC00080910D018450833008F084C3B5CF0E94FA
:102BD0007708982F947082FD81C3BCCF853009F4AB
:102BE00083C1863009F4D5C144C30E94CA090E943A
:102BF000770887FF08C080910C01815080930C01F9
:102C000081E080930B010E94770884FF08C08091C7
:102C10000C018F5F80930C018FEF80930B018091EB
:102C20000C01811102C081E004C090E08D971CF07E
:102C30008CE280930C010E94770882FF08C080918B
:102C40000A01815080930A0181E0809309010E946A
:102C5000770883FF08C080910A018F5F80930A0183
:102C60008FEF8093090180910A01811102C081E0F8
:102C700004C090E08D971CF08CE280930A01809153
:102C8000DF018823A1F10E94821AA50194010E940C
:102C9000A61A672B682B692B11F481E001C08FEF16
:102CA0008093DA010E94821AA50194010E94A61A5B
:102CB000672B682B692B11F481E001C08FEF8093A3
:102CC000DE018091DF0191E089278093DF0180E4BC
:102CD0008093080180E280930701909306010E948F
:102CE000CA0960E971E080E090E00E948C07809161
:102CF0000701823009F493C08E3309F490C020910B
:102D0000080130E04091D90150E0F9013297BA0151
:102D1000665F7F4F6E177F0794F1B90161507109AB
:102D20004617570764F590E020910C0130E0BC0194
:102D300062507109A9014C5E5F4F4617570764F056
:102D4000AC01415051092417350734F462E08091F9
:102D500006010E94AE0A0AC0A9014E5E5F4F4817E5
:102D6000590724F002968217930784F720910701F0
:102D700030E0A9014250510980910C013DC04091C1
:102D8000050150E0BA01685F7F4F621773070CF4CA
:102D90005BC0B9016E5F7F4F641775070CF445C0C7
:102DA00090E020910A0130E0BC0162507109A90154
:102DB0004C5E5F4F461757076CF0AC01415051090C
:102DC000241735073CF4809106016EEF81950E942F
:102DD000AE0A0AC0A9014E5E5F4F4817590724F09A
:102DE0000296821793077CF72091070130E0A90132
:102DF0004250510980910A0190E04817590779F033
:102E0000BC016C5E7F4F4617570749F04C5F5F4F20
:102E10004817590721F042962817390749F580913C
:102E2000DE0181958093DE0123C02230310564F4F8
:102E30008091D8018F3F11F41092D8018091D80170
:102E40008F5F8093D8010EC02F3731058CF08091B1
:102E5000D7018F3F11F41092D7018091D7018F5F76
:102E60008093D7019091DF0181E089278093DF0172
:102E7000909108018091DA01890F80930801909167
:102E800007018091DE01890F8093070176CE809142
:102E9000E001813019F482E080930D0182E390E03B
:102EA00090931F0680931E065092210640922006A2
:102EB0008FE491E06BC01092D7011092D80181E0AD
:102EC0008093DF0182E080930D011092D601109271
:102ED000D5011092D90186E78093050184E18093A2
:102EE0000C0180930A0149CE0E94550D50921F0695
:102EF00040921E06D0922106C092200686E591E0FF
:102F00000E94530D10931F0600931E06F092210697
:102F1000E092200683E691E00E94530D4EE250E0DD
:102F200050931F0640931E063092210620922006E1
:102F300085E791E00E94530D64E370E070931F06F3
:102F400060931E068FE190E0909321068093200607
:102F50008CE791E00E94530D10931F0600931E060C
:102F6000D0932106C093200683E691E00E94530D82
:102F7000E2E2F0E0F0931F06E0931E0647E350E024
:102F8000509321064093200681E891E00E94530D62
:102F90006BC180910F069091100683709927892B41
:102FA00009F073C00E94770885FF07C08091040173
:102FB000823018F08150809304010E94770886FFC8
:102FC00007C080910401883018F48F5F809304015A
:102FD0000E94770887FF0EC08091040199EF980F37
:102FE000923010F484E004C08450833018F481E0FF
:102FF000809304010E94770884FF0BC08091040134
:10300000843010F484E003C0873018F487E08093A4
:1030100004010E94770883FF38C0E09104018E2FDD
:1030200090E0FC013197E830F10578F5EA5AFF4F5E
:103030000C94091B83E08093030181E009C081E0C7
:103040008093030182E004C082E08093030183E067
:103050008093DD011AC083E08093020181E009C002
:1030600081E08093020182E004C082E0809302014B
:1030700083E08093DC0109C081E08093010103C0FB
:103080001092010182E08093DB010E94550D68E2FD
:1030900070E070931F0660931E06D0922106C092C6
:1030A00020068BE891E00E94530D8AE0682E712C77
:1030B00070921F0660921E06F0922106E092200692
:1030C00083E991E00E94530D88E290E090931F06FF
:1030D00080931E06309221062092200683EA91E01A
:1030E0000E94530D70921F0660921E06EFE1F0E001
:1030F000F0932106E093200683E991E00E94530DAE
:1031000010921F0610921E06D0932106C09320062F
:103110008BEA91E00E94530D86E290E090931F06A7
:1031200080931E06D0932106C093200682EB91E087
:103130000E94530D42E250E050931F0640931E063A
:1031400067E370E0709321066093200681E891E0C8
:103150000E94530DE09104018E2F90E0FC01319705
:10316000E830F10580F5E25AFF4F2CE00C94091B82
:1031700045E169E070E00BC041E269E070E00DC03C
:1031800042E269E070E00FC045E16DE170E088E087
:1031900090E017C041E26DE170E08FE190E011C076
:1031A00042E26DE170E083E490E00BC04FE067E243
:1031B00070E084E290E005C045E167E270E082E4FF
:1031C00090E00E94EF0C8091DD01823059F0833055
:1031D00081F08130B1F42CE045E169E070E088E0F5
:1031E00090E00DC02CE041E269E070E08FE190E0FA
:1031F00006C02CE042E269E070E083E490E00E94C7
:10320000EF0C8091DC01823059F0833081F0813005
:10321000B1F42CE045E16DE170E088E090E00DC094
:103220002CE041E26DE170E08FE190E006C02CE01F
:1032300042E26DE170E083E490E00E94EF0C809147
:10324000DB01813049F0823079F42CE045E167E21E
:1032500070E082E490E006C02CE04FE067E270E0AE
:1032600084E290E00E94EF0C8CE096E00E94AB08B4
:1032700084CC0E94770883FF0DC0809100018130CB
:1032800021F0823021F486E003C083E001C085E0B4
:1032900080930D0180910F0680FD16C00E94770873
:1032A00085FF07C080910001823018F08150809323
:1032B00000010E94770886FF07C0809100018330DB
:1032C00018F48F5F809300010E94200B56CC10925F
:1032D000E0012CCC83E080930D012ECC90930D0166
:1032E00039CC0F931F93CF93DF93EC0181E090E0F3
:1032F0000E94901A80FF2EC08AE090E00E94901AEF
:103300009FEF980F9E3F30F522E330E03F8B2E8BEE
:1033100028E330E0398F288F0BE010E0E881F98155
:103320000190F081E02D682FCE010995C8010E941F
:10333000901A0F5F1F4F0131110581F7CE010496DE
:103340000E94AB0888EE93E0DF91CF911F910F911F
:103350000C947208DF91CF911F910F9108950497FB
:103360000C947119E2E3F6E01382128288EE93E086
:10337000A0E0B0E084839583A683B78386E291E0E2
:10338000918380838FEF9FEF95878487E8E0F6E055
:10339000138212821186128620E123879087878309
:1033A000108A118A128A138A148A88E391E0918321
:1033B000808386E491E095838483178A168A118E30
:1033C000108E81E0828F138E848F158E8DE597E0AD
:1033D000909307068093060680E090E89093050698
:1033E0008093040646983E9A47983F9A0895CF9254
:1033F000DF92EF92FF920F931F93CF93DF931F9271
:10340000CDB7DEB7182F062FE42E862F880F8E5FDC
:1034100099830E94CD0F83E00E94CD0FF12EC12E23
:103420009981D92E8C2D8F19801798F4F601E7FE1B
:1034300002C0849101C080810E94CD0F182F80E0CE
:103440000E94CD0F8123FFEFCF1ADF0A8111EACF4F
:1034500001C081E00F90DF91CF911F910F91FF90FC
:10346000EF90DF90CF9008958F929F92AF92BF928E
:10347000CF92DF92EF92FF92CF93DF93EC016881BE
:1034800079818A819B81611571058105910521F4FE
:1034900064E279ED8BE597E02DE133EF41E050E018
:1034A0000E94A61A49015A019B01AC01A7EAB1E4A6
:1034B0000E94C51A6B017C01ACEEB4EFA50194012A
:1034C0000E94D31ADC01CB018C0D9D1DAE1DBF1DCA
:1034D000B7FF03C00197A109B04888839983AA83E5
:1034E000BB83BC01CD019F77DF91CF91FF90EF901F
:1034F000DF90CF90BF90AF909F908F9008950E94E3
:10350000341A08958AE191E00E94341A0895609374
:103510001A0170931B0180931C0190931D01089563
:10352000F999FECF92BD81BDF89A992780B508958B
:10353000262FF999FECF1FBA92BD81BD20BD0FB6CF
:10354000F894FA9AF99A0FBE01960895052E97FB02
:103550001EF400940E94BD1A57FD07D00E94D81A8D
:1035600007FC03D04EF40C94BD1A5095409530954D
:1035700021953F4F4F4F5F4F0895909580957095DF
:1035800061957F4F8F4F9F4F08950E94FA1AA59F14
:10359000900DB49F900DA49F800D911D112408954E
:1035A000B7FF0C94C51A0E94C51A821B930B08958D
:1035B000A1E21A2EAA1BBB1BFD010DC0AA1FBB1F37
:1035C000EE1FFF1FA217B307E407F50720F0A21BA9
:1035D000B30BE40BF50B661F771F881F991F1A9416
:1035E00069F760957095809590959B01AC01BD0140
:1035F000CF010895A29FB001B39FC001A39F700D9A
:10360000811D1124911DB29F700D811D1124911DEA
:103610000895EE0FFF1F0590F491E02D099481E0CD
:0C36200090E0F8940C94141BF894FFCF79
:10362C00010103030176012040011401140200E1A1
:10363C00000000000000FFFFFFFF01000000000180
:10364C00000800000000F10B6A0C120C070CB30F01
:10365C00160C340C00000000DB086A0662076107D8
:10366C007119FCFF0000AF1900C1808100000050EF
:10367C00415553454400446576656C6F7065642014
:10368C004279005A61636861726961682046616CB5
:10369C00676F757400417274204279004C454E5A24
:1036AC00004220746F206578697400506164646C0A
:1036BC00653100446F6720436F7267692044617302
:1036CC00636800506164646C653200536F756E649E
:1036DC003A004F4E2020204F464600504C41590096
:1036EC004F5054494F4E5300435245444954530094
:00000001FF
